:020000040800F2
:1000000000C00120411D01083F1D01083D1D0108E0
:100010003D1D01083D1D01083D1D010800000000B7
:100020000000000000000000000000003F1D01086B
:100030003F1D0108000000003F1D0108219D000830
:100040003D1D01083D1D01083D1D01083D1D010824
:100050003D1D01083D1D01083D1D01083D1D010814
:100060003D1D01083D1D01083D1D01083D1D010804
:100070003D1D01083D1D01083D1D01083D1D0108F4
:100080003D1D01083D1D01083D1D01083D1D0108E4
:100090003D1D01083D1D01083D1D01083D1D0108D4
:1000A0003D1D01083D1D01083D1D01083D1D0108C4
:1000B0003D1D01083D1D01083D1D01083D1D0108B4
:1000C0003D1D01083D1D01083D1D01083D1D0108A4
:1000D0003D1D01083D1D01083D1D01083D1D010894
:1000E0003D1D01083D1D01083D1D01083D1D010884
:1000F0003D1D01083D1D01083D1D01083D1D010874
:100100003D1D01083D1D01083D1D01083D1D010863
:100110003D1D01083D1D01083D1D01083D1D010853
:100120003D1D01083D1D01083D1D01083D1D010843
:100130003D1D01083D1D01083D1D01083D1D010833
:100140003D1D01083D1D01083D1D01083D1D010823
:100150003D1D01083D1D01083D1D01083D1D010813
:100160003D1D01083D1D01083D1D01083D1D010803
:100170003D1D01083D1D01083D1D01083D1D0108F3
:100180003D1D01083D1D01083D1D01083D1D0108E3
:100190003D1D01083D1D01083D1D01083D1D0108D3
:1001A0003D1D01083D1D01083D1D010838B50A4DE2
:1001B0000024214605F108004FF41662C5E9004409
:1001C0000AF052F805F6681021464FF494620AF0DE
:1001D0004BF8204638BD00BFC009002010B5064BC3
:1001E000002403F60C604FF48862AA21C3F8084E7D
:1001F0000AF03AF8204610BDC009002038B5094C75
:1002000004F514654021224673200C4409F068FF70
:10021000A542F7D1044A2021732009F061FF002094
:1002200038BD00BFC80900200813002038B5094BAD
:10023000002203F60C64C3F8082E04F588654021FB
:1002400022466C200C4409F04BFFA542F7D1002058
:1002500038BD00BFC009002038B5094C04F59065D1
:100260004021224674200C4409F03AFFA542F7D100
:10027000044A2021742009F033FF002038BD00BF5C
:1002800028130020A817002010B5074C202104F5E2
:10029000AA72612009F024FF04F5BA7220216120BE
:1002A00009F01EFF002010BDB81A002010B5064B43
:1002B000002403F1080103F66810C3E9004404F0C8
:1002C000ABF9204610BD00BFC009002008B50548A5
:1002D000054900F6681200F60C6004F0CFF9002022
:1002E00008BD00BFC00900200C1C002010B5064B43
:1002F0000648002403F1080203F60C61C3F8084E17
:1003000004F0EAF9204610BDC00900202C1C002092
:100310000E490A68B2F5166F15D030B4531E01F1BC
:10032000080401F1270523440138C4F102041544EF
:10033000E2180A6010F8012F03F8012FAB42F7D141
:10034000002030BC70470020704700BFC00900206B
:1003500070B40E4CD4F8086EB6F5886F12DA04F655
:100360000C61731E04F64B65421E0B44C1F1020082
:100370003544C118C4F8081E12F8011F03F8011F04
:10038000AB42F6D1002070BC704700BFC00900200E
:100390000E494A68B2F5946F15D030B4531E01F679
:1003A000681401F6871523440138C4F1020415448A
:1003B000E2184A6010F8012F03F8012FAB42F7D181
:1003C000002030BC70470020704700BFC0090020EB
:1003D00000207047024B0020C3E90000704700BFB7
:1003E000C0090020002070471649031D01F5AA72BC
:1003F000934203D901F5AC73984217D370B40468E3
:100400004268C6680569C1F85441C1F85821446979
:1004100082698368C1F85C31C1E95865C1E95A4213
:10042000C369C1F87031002070BC7047431E01F5EC
:10043000BA7113F8010F02F8010B9142F9D10020B3
:10044000704700BFB81A002010B50A4B0A488EB09A
:1004500003F1080203F60C610024C3F8084E04F00F
:100460003BF90649024601A809F092FF01A809F0EC
:100470003FFCFBE7C00900202C1C0020481E01089F
:1004800008B5012009F0D2FB1F4A0121672009F0BD
:1004900001FD1E4A0121722009F0FCFC1C4A0121C9
:1004A000732009F0F7FC1B4A0121742009F0F2FCCB
:1004B000194A20216B2009F0EDFC184A20216D20FB
:1004C00009F0E8FC164A0121612009F0E3FC154A15
:1004D00001216F2009F0DEFC134A01216C2009F094
:1004E000D9FC124A40216A2009F0D4FC104A0121AB
:1004F000652009F0CFFC0F4A0121702009F0CAFCE9
:1005000009F0E2FCFCE700BFAD020008AD01000805
:10051000FD010008590200081103000891030008BA
:1005200089020008DD0100082D02000851030008BF
:10053000CD020008ED02000870B582B0A72A14466B
:1005400006460D468DF807300DD92946A82300220E
:10055000304601F055FFA83C304602F0D1FAA72CF6
:1005600005F1A805F1D894B922460DF107013046EE
:10057000012301F045FF80240DF1070130460123DE
:10058000A7228DF8074001F03BFF02B070BD29465D
:1005900023460022304601F033FFA72CE4D19DF81A
:1005A00007302246304663F07F040DF10701012336
:1005B0008DF8074001F024FF02B070BD70B582B025
:1005C000872A144606460D468DF807300DD9294670
:1005D00088230022304601F013FF883C304602F0A9
:1005E0008FFA872C05F18805F1D894B922460DF1D0
:1005F00007013046012301F003FF80240DF10701BC
:100600003046012387228DF8074001F0F9FE02B041
:1006100070BD294623460022304601F0F1FE872CAA
:10062000E4D19DF807302246304663F07F040DF197
:10063000070101238DF8074001F0E2FE02B070BD12
:1006400008B50021C82209F00FFE00210346002052
:10065000C3E9320108BD00BF2DE9F84F1646D0E9C5
:100660003223002712EB060B43EB070CBCF1000F03
:1006700008BFBBF1A80F04468A4630D3C2F1A803D5
:100680005146204601F0BCFED4F8C83000210022BB
:10069000C4E932122046A3F1A802C3F1A80316440C
:1006A0009A4402F02DFAD4E93223002712EB06080F
:1006B00043EB0709B9F1000F08BFB8F1A80F3546A1
:1006C000DCD233465146204601F09AFED4E932325C
:1006D0005D1942EB0707C4E93257BDE8F88F35468C
:1006E000EFE700BF30B5D0E9322383B0002B4FF0E5
:1006F0001F0108BFA72A04468DF8071014D00DF17A
:100700000701012301F07CFE80250DF10701012383
:10071000A72220468DF8075001F072FE0022002328
:10072000C4E9322303B030BD9F250123A7220DF178
:1007300007018DF8075001F063FEEFE72DE9F04760
:10074000D2E932454FF00009A94508BFA14216463B
:100750008A460746C4F1A8020ED20B46014630462F
:1007600001F0CEFFD6E93232B3EB0A0362EB0902A5
:10077000C6E93232BDE8F08723460146304601F033
:10078000BFFFD6E932321B1B62EB05022744BAEBEE
:100790000404C6E93232EDD027444FF000084FF090
:1007A0000009304602F0ACF93D1BA72C4FF0A8031E
:1007B0004FF00002294630460AD82346002201F0B5
:1007C0009FFFC4F1A8040023C6E93243BDE8F087C7
:1007D00001F096FFA83CC6E93289E2D1CAE700BF22
:1007E000D02209F0A7BC00BF704700BF08B50021A8
:1007F000C82209F039FD002103460020C3E9320177
:1008000008BD00BF2DE9F84F1646D0E93223002776
:1008100012EB060B43EB070CBCF1000F08BFBBF15A
:10082000880F04468A4630D3C2F1880351462046D9
:1008300001F0E6FDD4F8C83000210022C4E93212EC
:100840002046A3F18802C3F1880316449A4402F0BB
:1008500057F9D4E93223002712EB060843EB0709C6
:10086000B9F1000F08BFB8F1880F3546DCD2334626
:100870005146204601F0C4FDD4E932325D1942EB05
:100880000707C4E93257BDE8F88F3546EFE700BFE8
:1008900030B5D0E9322383B0002B4FF01F0108BFE1
:1008A000872A04468DF8071014D00DF107010123A3
:1008B00001F0A6FD80250DF10701012387222046C6
:1008C0008DF8075001F09CFD00220023C4E932237B
:1008D00003B030BD9F25012387220DF107018DF85C
:1008E000075001F08DFDEFE72DE9F047D2E93245E1
:1008F0004FF00009A94508BFA14216468A4607469F
:10090000C4F188020ED20B460146304601F0F8FED3
:10091000D6E93232B3EB0A0362EB0902C6E932329E
:10092000BDE8F08723460146304601F0E9FED6E9EE
:1009300032321B1B62EB05022744BAEB0404C6E902
:100940003232EDD027444FF000084FF00009304616
:1009500002F0D6F83D1B872C4FF088034FF00002C1
:10096000294630460AD82346002201F0C9FEC4F1C8
:1009700088040023C6E93243BDE8F08701F0C0FED9
:10098000883CC6E93289E2D1CAE700BFD02209F02B
:10099000D1BB00BF704700BFF0B50F4683B015460E
:1009A0000021C82204461E4609F05EFC0C49ADF841
:1009B0000670204608230022009141F20107694693
:1009C000ADF8047001F01CFD204602F099F83246A3
:1009D000294620460423FFF7AFFD03B0F0BD00BF5A
:1009E00001A8010081B170B5054616460C46304697
:1009F00002F086F8A8232946002230461D4401F063
:100A00007FFE013CF3D170BD704700BF2DE9F04F70
:100A1000BFB0CDE9040100218B4614460AA8C822C4
:100A20001E46489D544F09F01FFC08235A4608A94A
:100A30000AA8ADF8264041F201040897CDE93CBB75
:100A4000ADF8244001F0DCFC0AA802F059F8DDE919
:100A50003C23511943EB0B0302910393DDE902019F
:100A6000002908BFA8285F46C0F083805C46314655
:100A7000C2F1A8030AA801F0C3FC3C9B3D97A3F177
:100A8000A8020AA8C3F1A80315443C941E4402F02E
:100A900037F8DDE93C20002112EB050840EB0109A5
:100AA000B9F1000F08BFB8F1A80FE0D22C460F46ED
:100AB0002B4631460AA801F0A3FCDDE93C32E318DD
:100AC000009347EB02030193DDE90012002A4FF087
:100AD000040308BFA729CDE93C128DF81F303DD093
:100AE000009A0DF11F0101230AA801F089FC80245E
:100AF0000DF11F010123A7220AA88DF81F4001F064
:100B00007FFC049E00252B46A82231460AA8CDE989
:100B10003C5501F0F5FD059B2F46ABB11C46334615
:100B200023441E46A8460AA801F0EAFF351BA72C5D
:100B30004FF0A8034FF0000229460AA807D8234621
:100B40000AA8002201F0DCFD3FB0BDE8F08F01F003
:100B5000D7FDA83CCDE93C78E5D1F5E78424012315
:100B6000A7220DF11F010AA88DF81F4001F048FCD3
:100B7000C7E72C469CE700BF01A8010070B50C46F2
:100B800015460021C82209F06FFB2A4621461F2383
:100B9000BDE87040D0E400BF81B170B5054616468F
:100BA0000C46304601F0ACFFA8232946002230460F
:100BB0001D4401F0A5FD013CF3D170BD704700BF9D
:100BC0002DE9F04FBBB0CDE90201174606A8C822B7
:100BD000002100251E4609F047FB002D4FF00002C2
:100BE00008BFA82ECDE93822C0F0858092469346F2
:100BF000C2F1A803394606A801F002FC389BCDF8E3
:100C0000E4A0A3F1A80206A8C3F1A80316441F4458
:100C1000CDF8E0B001F074FFDDE93823002512EBD8
:100C2000060843EB0509B9F1000F08BFB8F1A80F9A
:100C30003446DDD23346394606A801F0E1FBDDE952
:100C40003832E318009345EB02030193DDE900120B
:100C5000002A4FF01F0308BFA729CDE938128DF8ED
:100C600017303DD0009A0DF11701012306A801F0BD
:100C7000C7FB80240DF117010123A72206A88DF8D8
:100C8000174001F0BDFB029E00252B46A8223146ED
:100C900006A8CDE9385501F033FD039B2F46ABB1D3
:100CA0001C46334623441E46A84606A801F028FFEA
:100CB000351BA72C4FF0A8034FF00002294606A8C9
:100CC00007D8234606A8002201F01AFD3BB0BDE874
:100CD000F08F01F015FDA83CCDE93878E5D1F5E7B6
:100CE0009F240123A7220DF1170106A88DF81740B4
:100CF00001F086FBC7E7344600229BE7704700BF40
:100D0000C82209F017BA00BF70B50C46154600217D
:100D1000C82209F0A9FA2A4621461F23BDE87040DF
:100D20004CE400BF81B170B5054616460C4630460E
:100D300001F0E6FE88232946002230461D4401F0DA
:100D4000DFFC013CF3D170BD704700BF2DE9F04FCF
:100D5000BBB0CDE90201174606A8C8220021002534
:100D60001E4609F081FA002D4FF0000208BF882EC0
:100D7000CDE93822C0F0858092469346C2F18803BF
:100D8000394606A801F03CFB389BCDF8E4A0A3F15E
:100D9000880206A8C3F1880316441F44CDF8E0B0CA
:100DA00001F0AEFEDDE93823002512EB060843EB27
:100DB0000509B9F1000F08BFB8F1880F3446DDD23C
:100DC0003346394606A801F01BFBDDE93832E3184B
:100DD000009345EB02030193DDE90012002A4FF076
:100DE0001F0308BF8729CDE938128DF817303DD091
:100DF000009A0DF11701012306A801F001FB8024E0
:100E00000DF117010123872206A88DF8174001F084
:100E1000F7FA029E00252B468822314606A8CDE926
:100E2000385501F06DFC039B2F46ABB11C46334691
:100E300023441E46A84606A801F062FE351B872CF7
:100E40004FF088034FF00002294606A807D8234632
:100E500006A8002201F054FC3BB0BDE8F08F01F081
:100E60004FFC883CCDE93878E5D1F5E79F24012394
:100E700087220DF1170106A88DF8174001F0C0FA7E
:100E8000C7E7344600229BE7704700BFC82209F03D
:100E900051B900BF2DE9F04FBBB016460390C822F0
:100EA0000F4606A80021002509F0DEF9002D4FF0BD
:100EB000000208BF882ECDE938226ED392469346B1
:100EC000C2F18803394606A801F09AFA389BCDF89A
:100ED000E4A0A3F1880206A8C3F1880316441F44C6
:100EE000CDF8E0B001F00CFEDDE93823002512EB6F
:100EF000060843EB0509B9F1000F08BFB8F1880FE8
:100F00003446DDD23346394606A801F079FADDE9E8
:100F10003832E318009345EB02030193DDE9001238
:100F2000002A4FF0060308BF8729CDE938128DF853
:100F3000173027D0009A0DF11701012306A801F000
:100F40005FFA80240DF117010123872206A88DF88E
:100F5000174001F055FA039E00233146882206A867
:100F600000240025CDE9384501F0CAFB06A801F0B0
:100F7000C7FD314606A82023002201F0C1FB3BB08B
:100F8000BDE8F08F8624012387220DF1170106A802
:100F90008DF8174001F034FADDE734460022B1E75E
:100FA00008B50021C82209F05FF90021034600209E
:100FB000C3E9320108BD00BF2DE9F84F1646D0E95C
:100FC0003223002712EB060B43EB070CBCF1000F9A
:100FD00008BFBBF1880F04468A4630D3C2F18803AC
:100FE0005146204601F00CFAD4F8C8300021002206
:100FF000C4E932122046A3F18802C3F188031644E3
:101000009A4401F07DFDD4E93223002712EB060853
:1010100043EB0709B9F1000F08BFB8F1880F354657
:10102000DCD233465146204601F0EAF9D4E93232A7
:101030005D1942EB0707C4E93257BDE8F88F354622
:10104000EFE700BF70B5D1E93223A4B0002B0C4606
:1010500008BF872A4FF0060105468DF8071029D0F2
:101060000DF107010123204601F0CAF980260DF198
:1010700007010123872220468DF8076001F0C0F99F
:1010800000220023C4E93223204601F039FD204626
:1010900002A98823002202AC01F032FB0FCC2860A9
:1010A0006960AA60EB600FCC28616961AA61EB619D
:1010B00024B070BD8626012387220DF1070120464A
:1010C0008DF8076001F09CF9DAE700BFD02209F043
:1010D00031B800BF704700BF08B50021C82209F031
:1010E000C3F8002103460020C3E9320108BD00BF58
:1010F0002DE9F84F1646D0E93223002712EB060BF4
:1011000043EB070CBCF1000F08BFBBF1680F0446AE
:101110008A4630D3C2F168035146204601F070F987
:10112000D4F8C83000210022C4E932122046A3F1CD
:101130006802C3F1680316449A4401F0E1FCD4E963
:101140003223002712EB060843EB0709B9F1000F21
:1011500008BFB8F1680F3546DCD233465146204609
:1011600001F04EF9D4E932325D1942EB0707C4E9C8
:101170003257BDE8F88F3546EFE700BFF0B5D1E94B
:1011800032239DB0002B0C4608BF672A4FF00601A2
:1011900005468DF807102BD00DF1070101232046DD
:1011A00001F02EF980260DF1070101236722204668
:1011B0008DF8076001F024F900220023C4E93223EE
:1011C000204601F09DFC204602A96823002201F080
:1011D00097FA02AE0EAF34460FCCBC42286069606D
:1011E000AA60EB60264605F11005F4D11DB0F0BDF4
:1011F0008626012367220DF1070120468DF807603E
:1012000001F0FEF8D8E700BFD02208F093BF00BF7E
:10121000704700BF2DE9F04FBBB016460390C822BF
:101220000F4606A80021002509F01EF8002D4FF0FA
:10123000000208BF682ECDE938226ED3924693464D
:10124000C2F16803394606A801F0DAF8389BCDF8F8
:10125000E4A0A3F1680206A8C3F1680316441F4482
:10126000CDF8E0B001F04CFCDDE93823002512EBAD
:10127000060843EB0509B9F1000F08BFB8F1680F84
:101280003446DDD23346394606A801F0B9F8DDE927
:101290003832E318009345EB02030193DDE90012B5
:1012A000002A4FF0060308BF6729CDE938128DF8F0
:1012B000173027D0009A0DF11701012306A801F07D
:1012C0009FF880240DF117010123672206A88DF8ED
:1012D000174001F095F8039E00233146682206A8C6
:1012E00000240025CDE9384501F00AFA06A801F0EE
:1012F00007FC314606A83023002201F001FA3BB07A
:10130000BDE8F08F8624012367220DF1170106A89E
:101310008DF8174001F074F8DDE734460022B1E79C
:101320002DE9F04FBBB016460390C8220F4606A821
:101330000021002508F098FF002D4FF0000208BFA3
:10134000482ECDE938226ED392469346C2F1480327
:10135000394606A801F054F8389BCDF8E4A0A3F173
:10136000480206A8C3F1480316441F44CDF8E0B074
:1013700001F0C6FBDDE93823002512EB060843EB3C
:101380000509B9F1000F08BFB8F1480F3446DDD2A6
:101390003346394606A801F033F8DDE93832E31860
:1013A000009345EB02030193DDE90012002A4FF0A0
:1013B000060308BF4729CDE938128DF8173027D02A
:1013C000009A0DF11701012306A801F019F88024F5
:1013D0000DF117010123472206A88DF8174001F0EF
:1013E0000FF8039E00233146482206A8002400255A
:1013F000CDE9384501F084F906A801F081FB3146BA
:1014000006A84023002201F07BF93BB0BDE8F08F35
:101410008624012347220DF1170106A88DF81740F5
:1014200000F0EEFFDDE734460022B1E708B5002109
:10143000C82208F019FF002103460020C3E9320149
:1014400008BD00BF2DE9F84F1646D0E9322300272A
:1014500012EB060B43EB070CBCF1000F08BFBBF10E
:10146000480F04468A4630D3C2F14803514620460D
:1014700000F0C6FFD4F8C83000210022C4E93212BF
:101480002046A3F14802C3F1480316449A4401F0F0
:1014900037FBD4E93223002712EB060843EB070998
:1014A000B9F1000F08BFB8F1480F3546DCD233461A
:1014B0005146204600F0A4FFD4E932325D1942EBD8
:1014C0000707C4E93257BDE8F88F3546EFE700BF9C
:1014D000F0B5D1E9322395B0002B0C4608BF472A5E
:1014E0004FF0060105468DF807102BD00DF10701CE
:1014F0000123204600F084FF80260DF1070101231F
:10150000472220468DF8076000F07AFF0022002372
:10151000C4E93223204601F0F3FA204602A9482309
:10152000002201F0EDF802AE12AF34460FCCBC42FF
:1015300028606960AA60EB60264605F11005F4D1C9
:1015400015B0F0BD8626012347220DF10701204684
:101550008DF8076000F054FFD8E700BFD02208F0F4
:10156000E9BD00BF704700BFF0B50F4683B0154618
:101570000021C82204461E4608F076FE0C49ADF84C
:101580000670204608230022009141F201076946B7
:10159000ADF8047000F034FF204601F0B1FA324695
:1015A000294620460423FFF709F803B0F0BD00BF29
:1015B0000188010081B170B5054616460C463046DB
:1015C00001F09EFA88232946002230461D4401F08E
:1015D00097F8013CF3D170BD704700BF2DE9F04F83
:1015E000BFB0CDE9040100218B4614460AA8C822E9
:1015F0001E46489D544F08F037FE08235A4608A956
:101600000AA8ADF8264041F201040897CDE93CBB99
:10161000ADF8244000F0F4FE0AA801F071FADDE90B
:101620003C23511943EB0B0302910393DDE90201C3
:10163000002908BF88285F46C0F083805C46314699
:10164000C2F188030AA800F0DBFE3C9B3D97A3F1A2
:1016500088020AA8C3F1880315443C941E4401F093
:101660004FFADDE93C20002112EB050840EB0109AF
:10167000B9F1000F08BFB8F1880FE0D22C460F4631
:101680002B4631460AA800F0BBFEDDE93C32E318E8
:10169000009347EB02030193DDE90012002A4FF0AB
:1016A000040308BF8729CDE93C128DF81F303DD0D7
:1016B000009A0DF11F0101230AA800F0A1FE802469
:1016C0000DF11F01012387220AA88DF81F4000F0A9
:1016D00097FE049E00252B46882231460AA8CDE9B4
:1016E0003C5501F00DF8059B2F46ABB11C46334627
:1016F00023441E46A8460AA801F002FA351B872C8F
:101700004FF088034FF0000229460AA807D8234665
:101710000AA8002200F0F4FF3FB0BDE8F08F00F00F
:10172000EFFF883CCDE93C78E5D1F5E7842401233F
:1017300087220DF11F010AA88DF81F4000F060FEFE
:10174000C7E72C469CE700BF018801002DE9F04F58
:101750003C4E326889B004460D4612B33379F7889F
:101760004FEA032CE8B2E41B10FA84F4E3B243EA34
:101770000C0CC5F3072532F81C3005EB142423F0BC
:10178000FF0104F0FF040C4344F40074DBB212F8D0
:1017900014205840554040EA0520784009B0BDE883
:1017A000F08F06F1080301210DF11700336002F0FC
:1017B0006DFB9DF81730022103F0010307A88DF897
:1017C000173002F063FB9DF8173033714FEA032C9A
:1017D00083F001031B0202930FFA8CF3BDF81C7017
:1017E00001933268039406ABADF81870F7804FF0A0
:1017F00000091C4614F8013B019941EA03060299CD
:10180000B6B241EA090A01334CEA090B0021581E1D
:101810004BEA01084AEA010E7040013122F8180033
:10182000B1F5807F86EA030003F1010322F81E0070
:101830009BB2ECD109F50079B9F5806FDAD1039C40
:1018400090E700BF601C0020014B00221A60704727
:10185000601C0020002A42D0F0B40B1D041DA142E0
:1018600038BF98422ED302F1FF3CBCF1040F29D9B6
:1018700022F003070F440D46044655F8043B266842
:10188000BD4283EA060344F8043BF6D122F0030389
:101890009A42ACEB030400EB030501EB03060FD007
:1018A000C95CC25C4A40C25454B173786A78012C56
:1018B00083EA02036B7003D0B378AA785340AB700D
:1018C000F0BC7047024410F8014B11F8013B904204
:1018D00083EA040300F8013CF5D1F0BC704770477F
:1018E000036B826D416F2DE9F04F83EA020E436B6B
:1018F000C26D0668856A046DD0F8788083EA020CB0
:10190000836C026F83EA020783688EEA030EC36862
:101910008CEA030C036A5F40D0F880308EEA030E35
:10192000D0F884308CEA030CD0F898305F40C36C58
:101930005940436A5940D0F89C3081EA030BD0F8F3
:10194000A8308EEA030ED0F8AC308CEA030CD0F845
:10195000C03086EA050287EA030A6240D0F8A03068
:10196000876E82EA080282EA03094368C26A5A4023
:10197000436D5A40C36F5A40D0F8A4305A40036CAC
:101980005F4083695F40D0F8903083B07B40476C04
:1019900001934FEA4E013B4641EADC71C76E81EA92
:1019A0000A014E405F40C3690660D0F894605F4012
:1019B0007740D0F8A030866B4D404C4088EA010853
:1019C00059403346066E85625E400369C56BC0F8B8
:1019D000A0105E40D0F88830D0F8C41004655E4096
:1019E000D0F8B030C0F878805E402B46456E5D4040
:1019F00043695D40D0F88C305D40D0F8B4304FEA98
:101A00004C045D408BEA0101436844EADE744C40BB
:101A100084EA030BC36AC0F804B06340C362436D39
:101A200063404365C36F83EA0408D0F8A4305C4088
:101A3000019BC0F8A4409B46D0F8B830C0F87C8029
:101A40008BEA030BD0F8BC304FEA4B045F4044EA0A
:101A5000D77484EA0E0E7C0044EADB7484EA0C0C32
:101A60004FEA490444EAD274036A84EA0B0B83EA1E
:101A70000B030362836C83EA0B038364036F83EAC3
:101A80000B030367D0F8983083EA0B03C0F8983053
:101A9000D0F8C03083EA0B0B036983EA0E030361BD
:101AA000836B83EA0E038363036E83EA0E0303668C
:101AB000D0F8883083EA0E03C0F88830D0F8B03010
:101AC0004FEA46086C0048EAD57844EAD67483EABF
:101AD0000E0E036B544088EA0908520042EAD9729C
:101AE00083EA0803574003634FEA4A02836D42EAE0
:101AF000D172490041EADA7183EA080A83684D40ED
:101B000083EA0801D0F8803083EA0809D0F8A830C9
:101B100083EA0808436983EA0C034361C36B83EAE1
:101B20000C03C363436E83EA0C034366D0F88C3026
:101B300083EA0C03C0F88C30D0F8B43083EA0C038D
:101B4000C0F8B430436B83EA040CC368564083EAA0
:101B50000402C36D6340C365D0F884306340C0F8AD
:101B60008430D0F8AC306340C0F8AC30436A7B407E
:101B70004362C36C7B40C364436F7B404367D0F8D0
:101B80009C307B40C0F89C30D0F8C4305F40836903
:101B900073408361036C73400364836E7340836698
:101BA000D0F890307340C0F89030D0F8B8305E4034
:101BB000C369C0F834C06B40C361436CC0F858A01F
:101BC0006B404364C36EC0F880906B40C366D0F82E
:101BD000943081606B40C0F89430D0F8BC30C26063
:101BE0005D40224BC0F8A8801C46C0E92E65C0E9C4
:101BF00030B760349946A446C0F8B0E082460B4640
:101C000054F8045F59F8040F6F4207F03F01A5F143
:101C1000200B02FA05FE03FA0BFBC1F1200802FAC1
:101C200008F823FA01F64EEA0B0EA1F12007C5F1E0
:101C3000200B22FA07F746EA080623FA0BFB0AEB09
:101C4000C0083E4303FA05F522FA01F74EEA0B0EEF
:101C50002E434EEA0707E145D8E900324AF83060E2
:101C6000C8F80470CCD103B0BDE8F08F4C1E010859
:101C70002DE9F041844615461C468E4600F1C80801
:101C800067460FCF2E460FC60FCF0FC697E803004B
:101C900086E8030077460FCF26460FC60FCF0FC644
:101CA00097E8030086E80300D5E90362DCE9000158
:101CB000AF686B6922EA070223EA060350405940E5
:101CC000CCE90001D4E90476AB681F40EB681E4004
:101CD00078407140CCE90001D4E90362DEE90001FB
:101CE000A768636922EA070223EA060350405940C5
:101CF000CEE90001D5E90476A3681F40E3681E40E1
:101D000078407140CEE90001D5E90562DCE90201C5
:101D10002F69EB6922EA070223EA06035040594083
:101D2000CCE90201D4E906762B691F406B691E409D
:101D300078407140CCE90201D4E90562DEE9020194
:101D40002769E36922EA070223EA06035040594063
:101D5000CEE90201D5E9067623691F4063691E407A
:101D600078407140CEE90201D5E90676D5E908232D
:101D7000DCE9040122EA070223EA06035040594045
:101D8000CCE90401D4E90876AB691F40EB691E4039
:101D900078407140CCE90401D4E90762DEE904012E
:101DA000A769636A22EA070223EA06035040594002
:101DB000CEE90401D5E90876A3691F40E3691E4016
:101DC00078407140CEE904012F6A6E6A2A686B6818
:101DD000DCE9060122EA070223EA060350405940E3
:101DE000CCE90601D4E900762B6A1F406B6A1E40DD
:101DF00078407140CCE90601DEE90601276A666A8F
:101E00002268636822EA070223EA06035040594029
:101E1000CEE90601D5E90076236A1F40636A1E40B9
:101E200078407140CEE90601D5E90162DCE908019C
:101E30002F68EB6822EA070223EA06035040594064
:101E4000CCE90801D4E902762B681F406B681E407C
:101E500078407140CCE90801D4E90162DEE908016B
:101E60002768E36822EA070223EA06035940504044
:101E7000CEE90801D5E9027623681F4063680CF1BA
:101E8000280C1E4078407140E045CEE908010EF173
:101E9000280E7FF4F5AEBDE8F08100BFF0B5C5B007
:101EA00004460E46C0220F4914A808F043F912ADAB
:101EB00042AF2046FFF714FD3046FFF711FD0AAB95
:101EC0006A4631462046FFF7D3FE55F8080F2268D0
:101ED0006368696842404B40BD42C4E90023E8D1D1
:101EE00045B0F0BD101F01082DE9F04116468046AF
:101EF0000F461046194648251C46FFF7CFFF3146CE
:101F00002A46404608F016F92A4621463846BDE8DA
:101F1000F04108F00FB900BF2DE9F04116468046A8
:101F20000F461046194688251C46FFF7B7FF314675
:101F30002A46404608F0FEF82A4621463846BDE8C3
:101F4000F04108F0F7B800BF0B1D984230B400F123
:101F5000040201D291420ED301F1880500E004325F
:101F600051F8043B04688D4283EA04030360104681
:101F7000F5D130BC704700F1880410F8012B11F83E
:101F8000013B844283EA020300F8013CF5D130BCF6
:101F9000704700BF2DE9F843DDE90845002D08BF73
:101FA000882C8046894617461E4616D33946404639
:101FB000FFF7CAFF31464846FFF7C6FF494640468D
:101FC000FFF76CFF883C45F1FF35002D08BF882CDA
:101FD00007F1880706F18806E8D2394622464046CE
:101FE000FFF738FC08EB04023146137883F01F0337
:101FF000137098F8873083F0800388F8873048465C
:102000002246BDE8F84325E40B1D984230B400F1A8
:10201000040201D291420ED301F1480500E00432DE
:1020200051F8043B04688D4283EA040303601046C0
:10203000F5D130BC704700F1480410F8012B11F8BD
:10204000013B844283EA020300F8013CF5D130BC35
:10205000704700BF2DE9F843DDE90845002D08BFB2
:10206000482C8046894617461E4616D339464046B8
:10207000FFF7CAFF31464846FFF7C6FF49464046CC
:10208000FFF70CFF483C45F1FF35002D08BF482CF9
:1020900007F1480706F14806E8D23946224640468D
:1020A000FFF7D8FB08EB04023146137883F00603F0
:1020B000137098F8473083F0800388F8473048461B
:1020C0002246BDE8F843FFF7C5BB00BF2DE9F0434A
:1020D000ADF50B7DDDE9926790460546C8220C46BA
:1020E00026A80021994608F0BFF8C822002158A868
:1020F00008F0BAF8CDE900674B46424658A926A831
:10210000FFF7A8FF58AB26AA14A902A8FFF7ECFE18
:1021100002AF0DF1480C3E460FCE6645286069605F
:10212000AA60EB60374605F11005F4D114AE24AF78
:1021300035460FCDBD4220606160A260E3602E464F
:1021400004F11004F4D10DF50B7DBDE8F08300BF60
:102150002DE9F047ADF53C7DDDE9C498144607460E
:10216000C8220E4658A800211D469DF818A308F065
:102170007BF8C82200218AA808F076F8D9F8000078
:10218000D9F80410D9F80820D9F80C300DF1080C52
:10219000ACE80F00D9F81000D9F81410D9F81820BD
:1021A000D9F81C30ACE80F00D8F80000D8F80410BB
:1021B000D8F80820D8F80C300DF12C0CACE80F0042
:1021C000D8F81000D8F81410D8F81820D8F81C3017
:1021D0004FF000094FF02108ACE80F008DF828A05F
:1021E0004FF0000C02AA0BAB8AA958A8CDE90089D0
:1021F0008DF84CC0FFF7CEFE002D08BF882C10D301
:10220000314638468AAB58AAFFF786FE883C45F12E
:10221000FF35002D08BF882C06F1880607F18807D6
:10222000EED28AAB58AA36A914A8FFF775FE22464B
:1022300014A9384607F07EFF224636A9304607F03B
:1022400079FF0DF53C7DBDE8F08700BF2DE9F04337
:10225000ADF52B7D14460746C8220E4646A8002140
:102260001D464FF0400807F0FFFF4FF00009C8225D
:10227000002178A807F0F8FFDDE9B22378A946A885
:10228000CDE90089FFF786FE002D08BF882C10D30A
:102290003146384678AB46AAFFF73EFE883C45F10A
:1022A000FF35002D08BF882C06F1880607F1880746
:1022B000EED278AB46AA24A902A8FFF72DFE22464B
:1022C00002A9384607F036FF224624A9304607F017
:1022D00031FF0DF52B7DBDE8F08300BF000000004D
:1022E00000000000000000000000000000000000EE
:1022F00000000000000000000000000000000000DE
:10230000704700BFAFF30080AFF30080AFF30080F1
:10231000AFF30080AFF30080AFF30080AFF3008035
:10232000AFF30080AFF30080AFF30080AFF3008025
:10233000AFF30080AFF30080AFF30080AFF3008015
:10234000000000000000000000000000000000008D
:10235000000000000000000000000000000000007D
:10236000000000000000000000000000000000006D
:10237000000000000000000000000000000000005D
:10238000000000000000000000000000000000004D
:10239000000000000000000000000000000000003D
:1023A000000000000000000000000000000000002D
:1023B000000000000000000000000000000000001D
:1023C000000000000000000000000000000000000D
:1023D00000000000000000000000000000000000FD
:1023E00000000000000000000000000000000000ED
:1023F00000000000000000000000000000000000DD
:1024000003B32DE9F04122F00704001912F007028E
:102410000BD01C00C2F10805AC4200DD2C00A3EB80
:102420000408230000F0ECF84346DA0804D098468C
:1024300000F066F808F0070313B1002200F0E0F89E
:10244000BDE8F081704700BFAFF30080AFF30080BC
:10245000AFF30080AFF30080AFF30080AFF30080F4
:10246000AFF30080AFF30080AFF30080AFF30080E4
:10247000AFF30080AFF30080AFF30080AFF30080D4
:10248000000000000000000000000000000000004C
:10249000000000000000000000000000000000003C
:1024A000000000000000000000000000000000002C
:1024B000000000000000000000000000000000001C
:1024C000000000000000000000000000000000000C
:1024D00000000000000000000000000000000000FC
:1024E00000000000000000000000000000000000EC
:1024F00000000000000000000000000000000000DC
:1025000051F8044B51F8045BD0E9006704F05533EF
:1025100043EA530303F0333343EA930303F00F33E7
:1025200043EA131303F0FF1363F30F2386EA132622
:1025300005F0553343EA530303F0333343EA93037F
:1025400003F00F3343EA131303F0FF1343EA13239B
:1025500086EA034604F0AA3343EA430303F0CC338C
:1025600043EA830303F0F03343EA031303F0FF234A
:1025700043EA032387EA134705F0AA3343EA4303F8
:1025800003F0CC3343EA830303F0F03343EA03134D
:1025900003F0FF2343EA03236FF30F035F40E0E8F8
:1025A0000267013AACD17047AFF30080AFF300800F
:1025B000AFF30080AFF30080AFF30080AFF3008093
:1025C000000000000000000000000000000000000B
:1025D00000000000000000000000000000000000FB
:1025E00000000000000000000000000000000000EB
:1025F00000000000000000000000000000000000DB
:102600000024002530B46A4411F8015B02F8015B34
:10261000013BF9D130BCD0E9006704F0553343EAFF
:10262000530303F0333343EA930303F00F3343EAD6
:10263000131303F0FF1363F30F2386EA132605F049
:10264000553343EA530303F0333343EA930303F070
:102650000F3343EA131303F0FF1343EA132386EA0D
:10266000034604F0AA3343EA430303F0CC3343EABE
:10267000830303F0F03343EA031303F0FF2343EA39
:10268000032387EA134705F0AA3343EA430303F021
:10269000CC3343EA830303F0F03343EA031303F03C
:1026A000FF2343EA03236FF30F035F40E0E8026771
:1026B000704700BFAFF30080AFF30080AFF300803E
:1026C000000000000000000000000000000000000A
:1026D00000000000000000000000000000000000FA
:1026E00000000000000000000000000000000000EA
:1026F00000000000000000000000000000000000DA
:1027000003B32DE9F04122F00704001912F007028B
:102710000BD01C00C2F10805AC4200DD2C00A3EB7D
:102720000408230000F0ECF84346DA0804D0984689
:1027300000F066F808F0070313B1002200F0E0F89B
:10274000BDE8F081704700BFAFF30080AFF30080B9
:10275000AFF30080AFF30080AFF30080AFF30080F1
:10276000AFF30080AFF30080AFF30080AFF30080E1
:10277000AFF30080AFF30080AFF30080AFF30080D1
:102780000000000000000000000000000000000049
:102790000000000000000000000000000000000039
:1027A0000000000000000000000000000000000029
:1027B0000000000000000000000000000000000019
:1027C0000000000000000000000000000000000009
:1027D00000000000000000000000000000000000F9
:1027E00000000000000000000000000000000000E9
:1027F00000000000000000000000000000000000D9
:10280000F0E80245230065F31F446FF30F0545EA26
:10281000134584EA142303F47F435C4084EA0324D1
:1028200084EA141303F0F0135C4084EA031484EA8E
:10283000940303F00C335C4084EA830484EA540379
:1028400003F022335C4084EA430485EA152303F451
:102850007F435D4085EA032585EA151303F0F013F5
:102860005D4085EA031585EA950303F00C335D406E
:1028700085EA830585EA550303F022335D4085EA46
:10288000430541F8044B013A41F8045BB8D1704765
:10289000AFF30080AFF30080AFF30080AFF30080B0
:1028A000AFF30080AFF30080AFF30080AFF30080A0
:1028B000AFF30080AFF30080AFF30080AFF3008090
:1028C0000000000000000000000000000000000008
:1028D00000000000000000000000000000000000F8
:1028E00000000000000000000000000000000000E8
:1028F00000000000000000000000000000000000D8
:10290000F0E80245260065F31F446FF30F0545EA22
:10291000164584EA142606F47F46744084EA0624A9
:1029200084EA141606F0F016744084EA061484EA69
:10293000940606F00C36744084EA860484EA540651
:1029400006F02236744084EA460485EA152606F429
:102950007F46754085EA062585EA151606F0F016CD
:10296000754085EA061585EA950606F00C36754031
:1029700085EA860585EA550606F02236754085EA21
:10298000460530B46A4412F8014B013B01F8014B93
:10299000F9D102B0704700BFAFF30080AFF3008001
:1029A000AFF30080AFF30080AFF30080AFF300809F
:1029B000AFF30080AFF30080AFF30080AFF300808F
:1029C0000000000000000000000000000000000007
:1029D00000000000000000000000000000000000F7
:1029E00000000000000000000000000000000000E7
:1029F00000000000000000000000000000000000D7
:102A0000010000000000000000000000890000003C
:102A1000000000008B00008000000000808000802B
:102A2000010000008B000000010000000080000099
:102A3000010000008880008001000000820000800A
:102A4000000000000B000000000000000A00000071
:102A500001000000828000000000000003800000F0
:102A6000010000008B800000010000000B000080CE
:102A7000010000008A000080010000008100008049
:102A800000000000810000800000000008000080BD
:102A900000000000830000000000000003800080B0
:102AA0000100000088800080000000008800008095
:102AB0000100000000800000000000008280008013
:102AC000FF000000AFF30080AFF30080AFF30080A1
:102AD000AFF30080AFF30080AFF30080AFF300806E
:102AE000AFF30080AFF30080AFF30080AFF300805E
:102AF000AFF30080AFF30080AFF30080AFF300804E
:102B0000AFF204112DE9F05F86B00591036A816C84
:102B10004B40016F4B40D0F898104B40D0F8C0109C
:102B20004B40C768416B4F40C16D4F40D0F8841097
:102B30004F40D0F8AC104F4083EAF7760096466AD3
:102B4000C16C4E40416F4E40D0F89C104E40D0F8C2
:102B5000C4104E40D0F808E0016B9EEA010E816D72
:102B60009EEA010ED0F880109EEA010ED0F8A8105F
:102B70009EEA010E96EA0E08CDF804800569816B85
:102B80004D40016E4D40D0F888104D40D0F8B01047
:102B90004D4085EAF679CDF808904469C16B4C4008
:102BA000416E4C40D0F88C104C40D0F8B4104C40E2
:102BB000634003930368816A4B40016D4B40816F12
:102BC0004B40D0F8A0104B4083EAF47A4668C16AC3
:102BD0004E40416D4E40C16F4E40D0F8A4104E4063
:102BE00096EA050BC469416C4C40C16E4C40D0F86C
:102BF00094104C40D0F8BC104C408EEAF47504950B
:102C00008569016C4D40816E4D40D0F890104D406B
:102C1000D0F8B8104D4097EA050285EAF67C94EAB0
:102C2000030E456DD0F88460D0F8B4708369846C6D
:102C300095EA0805574096EA0B0693EA090394EAD9
:102C40000C045FEAB5755FEA76265FEA77075FEA0C
:102C5000B3435FEAB45425EA04015940416526EACA
:102C600005016140C0F8841027EA06016940C0F8F8
:102C7000B41023EA07017140816124EA030179401D
:102C80008164D0F8A4708368C46B856ED0F89C60B2
:102C900097EA0807544093EA0A0395EA090596EA79
:102CA0000E065FEAF7575FEA74745FEA35555FEA2C
:102CB000367625EA04015940C0F8A41026EA050139
:102CC0006140816027EA06016940C16323EA070188
:102CD0007140816624EA03017940C0F89C10DDF858
:102CE0000080846A856DD0F88C60D0F8B870436A33
:102CF00094EA0804564095EA0A0597EA090793EA18
:102D00000E035FEAB4345FEAF5655FEA36665FEAB0
:102D100037175FEAB34325EA04015940816226EA86
:102D200005016140816527EA06016940C0F88C1001
:102D300023EA07017140C0F8B81024EA0301794082
:102D40004162866FD0F8AC704369046C056F96EAF7
:102D50000806534097EA0B0794EA090495EA0C0524
:102D60005FEA36365FEAF7775FEA73035FEA741467
:102D70005FEA753525EA04015940816726EA0501B5
:102D80006140C0F8AC1027EA06016940416123EABE
:102D900007017140016424EA030179400167DDF80D
:102DA0000C900368046B456ED0F89460D0F8C07046
:102DB00093EA0803554094EA0A0496EA090697EA5A
:102DC0000C075FEAB4245FEAB5255FEA76565FEA4E
:102DD000776726EA05016140016327EA0601694039
:102DE000416623EA07017140C0F8941024EA030108
:102DF0007940C0F8C0100599A5430C686B4063404A
:102E00000360049A056DD0F88060D0F8B070C36993
:102E1000C46C95EA0805574096EA0A0693EA090346
:102E200094EA0E045FEAF5755FEAB6265FEAB70733
:102E30005FEAB3435FEAB45425EA040159400165EF
:102E400026EA05016140C0F8801027EA06016940C2
:102E5000C0F8B01023EA07017140C16124EA030100
:102E60007940C164D0F8A070C368846BC56ED0F897
:102E7000986097EA0807544093EA0B0395EA09051E
:102E800096EA0C065FEAF7575FEAF3735FEA747439
:102E90005FEAF5455FEA367625EA04015940C0F855
:102EA000A01026EA05016140C16027EA06016940D9
:102EB000816323EA07017140C16624EA0301794076
:102EC000C0F89810DDF80480C46AC56DD0F8886039
:102ED000D0F8BC70036A94EA0804564095EA0B05E2
:102EE00097EA090793EA0C035FEAB4345FEAF565F1
:102EF0005FEA76665FEA37175FEAF34325EA040183
:102F00005940C16226EA05016140C16527EA060110
:102F10006940C0F8881023EA07017140C0F8BC106E
:102F200024EA030179400162C66FD0F8A8700369F2
:102F3000446C456F96EA0806534097EA0A0794EAFC
:102F4000090495EA0E055FEAF6265FEAF7775FEA7D
:102F500073035FEA34145FEA353525EA040159400A
:102F6000C16726EA05016140C0F8A81027EA0601FA
:102F70006940016123EA07017140416424EA0301C9
:102F800079404167DDF808904368446B056ED0F8DE
:102F90009060D0F8C47093EA0803554094EA0B049B
:102FA00096EA090697EA0E075FEAB4245FEAF52578
:102FB0005FEAB6565FEA776726EA0501614041633A
:102FC00027EA06016940016623EA07017140C0F85B
:102FD000901024EA03017940C0F8C4100599A54374
:102FE0004C686B4063404360D0F8C030816C4B400C
:102FF000D0F898104B40416A4B40416F4B40476BB3
:10300000D0F880104F4081684F40C16D4F40D0F8DC
:10301000AC104F4083EAF7760096D0F8C460C16CDC
:103020004E40D0F89C104E40016A4E40016F4E4019
:10303000D0F830E0D0F884109EEA010EC1689EEA14
:10304000010E816D9EEA010ED0F8A8109EEA010ED5
:1030500096EA0E08CDF80480456ED0F8B4104D40C5
:10306000816B4D40D0F88C104D4001694D4085EA90
:10307000F679CDF80890046ED0F8B0104C40C16BD2
:103080004C40D0F888104C4041694C406340039359
:103090000368416D4B40D0F8A0104B40816A4B4013
:1030A000C16F4B4083EAF47A4668016D4E40D0F818
:1030B000A4104E40C16A4E40816F4E4096EA050B07
:1030C000D0F89040C1694C40816E4C40D0F8BC10A3
:1030D0004C40016C4C408EEAF4750495D0F8945045
:1030E00081694D40C16E4D40D0F8B8104D40416CE3
:1030F0004D4097EA050285EAF67C94EA030ED0F883
:10310000A450C66D4769D0F89430846C95EA0805E0
:10311000574096EA0B0693EA090394EA0C045FEA27
:10312000B5755FEA76265FEA77075FEAB3435FEA41
:10313000B45425EA04015940C0F8A41026EA050158
:103140006140C16527EA06016940416123EA070140
:103150007140C0F8941024EA030179408164876FBC
:10316000036BD0F8B040C56E066A97EA0807544072
:1031700093EA0A0395EA090596EA0E065FEAF7570D
:103180005FEA74745FEA35555FEA367625EA040132
:103190005940816726EA05016140016327EA06017B
:1031A0006940C0F8B01023EA07017140C16624EA03
:1031B000030179400162DDF80080446DC568D0F8F4
:1031C0008860476CD0F8C43094EA0804564095EA09
:1031D0000A0597EA090793EA0E035FEAB4345FEA47
:1031E000F5655FEA36665FEA37175FEAB34325EABB
:1031F00004015940416526EA05016140C16027EAA2
:1032000006016940C0F8881023EA07017140416453
:1032100024EA03017940C0F8C410866AD0F8AC7083
:10322000036E8469D0F8985096EA0806534097EAEE
:103230000B0794EA090495EA0C055FEA36365FEA63
:10324000F7775FEA73035FEA74145FEA753525EA7E
:1032500004015940816226EA05016140C0F8AC10C2
:1032600027EA06016940016623EA0701714081618E
:1032700024EA03017940C0F89810DDF80C90036847
:10328000D0F88440C56BD0F8BC60476F93EA080360
:10329000554094EA0A0496EA090697EA0C075FEAA1
:1032A000B4245FEAB5255FEA76565FEA776726EAD7
:1032B00005016140C0F8841027EA06016940C16336
:1032C00023EA07017140C0F8BC1024EA03017940E9
:1032D00041670599A5438C686B4063400360049A7D
:1032E000D0F8A050866D0769D0F89030C46C95EA8C
:1032F0000805574096EA0A0693EA090394EA0E0481
:103300005FEAF5755FEAB6265FEAB7075FEAB3439F
:103310005FEAB45425EA04015940C0F8A01026EA37
:1033200005016140816527EA06016940016123EAE0
:1033300007017140C0F8901024EA03017940C1648C
:10334000C76F436BD0F8B440856E466A97EA0807AA
:10335000544093EA0B0395EA090596EA0C065FEAE6
:10336000F7575FEAF3735FEA74745FEAF5455FEA63
:10337000367625EA04015940C16726EA0501614015
:10338000416327EA06016940C0F8B41023EA070147
:103390007140816624EA030179404162DDF80480CE
:1033A000046D8568D0F88C60076CD0F8C03094EA62
:1033B0000804564095EA0B0597EA090793EA0C03BF
:1033C0005FEAB4345FEAF5655FEA76665FEA37176D
:1033D0005FEAF34325EA04015940016526EA050145
:1033E0006140816027EA06016940C0F88C1023EA39
:1033F00007017140016424EA03017940C0F8C0105C
:10340000C66AD0F8A870436EC469D0F89C5096EA9A
:103410000806534097EA0A0794EA090495EA0E055C
:103420005FEAF6265FEAF7775FEA73035FEA341430
:103430005FEA353525EA04015940C16226EA0501F3
:103440006140C0F8A81027EA06016940416623EAF6
:1034500007017140C16124EA03017940C0F89C1062
:10346000DDF808904368D0F88040856BD0F8B860EC
:10347000076F93EA0803554094EA0B0496EA09069D
:1034800097EA0E075FEAB4245FEAF5255FEAB656CD
:103490005FEA776726EA05016140C0F8801027EAF5
:1034A00006016940816323EA07017140C0F8B81042
:1034B00024EA0301794001670599A543CC686B4074
:1034C00063404360436F816C4B40416A4B40D0F88E
:1034D000C4104B40D0F89C104B40D0F88070816DE8
:1034E0004F40016B4F4081684F40D0F8AC104F40C7
:1034F00083EAF7760096066FC16C4E40016A4E4033
:10350000D0F8C0104E40D0F898104E40D0F884E06B
:10351000C16D9EEA010E416B9EEA010EC1689EEAF2
:10352000010ED0F8A8109EEA010E96EA0E08CDF81A
:103530000480C56B41694D40D0F8B4104D40D0F8BF
:1035400088104D40416E4D4085EAF679CDF80890DF
:10355000846B01694C40D0F8B0104C40D0F88C100E
:103560004C40016E4C40634003930368D0F8A410B4
:103570004B40C16F4B40416D4B40C16A4B4083EAA9
:10358000F47A4668D0F8A0104E40816F4E40016D2D
:103590004E40816A4E4096EA050BD0F8B840D0F80C
:1035A00090104C40C16E4C40016C4C4081694C40C5
:1035B0008EEAF4750495D0F8BC50D0F894104D40C4
:1035C000816E4D40416C4D40C1694D4097EA050206
:1035D00085EAF67C94EA030E856F8668076ED0F85C
:1035E000BC30846C95EA0805574096EA0B0693EACE
:1035F000090394EA0C045FEAB5755FEA76265FEA90
:1036000077075FEAB3435FEAB45425EA04015940FF
:10361000816726EA05016140816027EA0601694069
:10362000016623EA07017140C0F8BC1024EA0301D7
:1036300079408164876AD0F884300469856ED0F857
:10364000C06097EA0807544093EA0A0395EA09051F
:1036500096EA0E065FEAF7575FEA74745FEA35553B
:103660005FEA367625EA04015940816226EA0501BF
:103670006140C0F8841027EA06016940016123EA2D
:1036800007017140816624EA03017940C0F8C01047
:10369000DDF80080D0F8A440456BD0F88C60C76995
:1036A000036F94EA0804564095EA0A0597EA090769
:1036B00093EA0E035FEAB4345FEAF5655FEA3666C3
:1036C0005FEA37175FEAB34325EA04015940C0F8BF
:1036D000A41026EA05016140416327EA060169401A
:1036E000C0F88C1023EA07017140C16124EA03018C
:1036F00079400167466DD0F8AC70836BD0F8944088
:10370000456A96EA0806534097EA0B0794EA0904CB
:1037100095EA0C055FEA36365FEAF7775FEA7303EE
:103720005FEA74145FEA753525EA04015940416582
:1037300026EA05016140C0F8AC1027EA060169409D
:10374000816323EA07017140C0F8941024EA030161
:1037500079404162DDF80C900368C46DD0F8B05038
:10376000066CD0F89C7093EA0803554094EA0A046A
:1037700096EA090697EA0C075FEAB4245FEAB525E2
:103780005FEA76565FEA776726EA05016140C16520
:1037900027EA06016940C0F8B01023EA070171402A
:1037A000016424EA03017940C0F89C100599A543FF
:1037B0000C696B4063400360049AC56FC668476E2E
:1037C000D0F8B830C46C95EA0805574096EA0A0666
:1037D00093EA090394EA0E045FEAF5755FEAB626F8
:1037E0005FEAB7075FEAB3435FEAB45425EA04012E
:1037F0005940C16726EA05016140C16027EA060118
:103800006940416623EA07017140C0F8B81024EA14
:1038100003017940C164C76AD0F880304469C56E3D
:10382000D0F8C46097EA0807544093EA0B0395EA7E
:10383000090596EA0C065FEAF7575FEAF3735FEA59
:1038400074745FEAF5455FEA367625EA040159406B
:10385000C16226EA05016140C0F8801027EA06012E
:103860006940416123EA07017140C16624EA03010E
:103870007940C0F8C410DDF80480D0F8A040056B92
:10388000D0F888608769436F94EA0804564095EA47
:103890000B0597EA090793EA0C035FEAB4345FEA81
:1038A000F5655FEA76665FEA37175FEAF34325EA74
:1038B00004015940C0F8A01026EA050161400163E7
:1038C00027EA06016940C0F8881023EA0701714021
:1038D000816124EA030179404167066DD0F8A87040
:1038E000C36BD0F89040056A96EA0806534097EA01
:1038F0000A0794EA090495EA0E055FEAF6265FEAEC
:10390000F7775FEA73035FEA34145FEA353525EA37
:1039100004015940016526EA05016140C0F8A8107C
:1039200027EA06016940C16323EA07017140C0F834
:10393000901024EA030179400162DDF808904368A1
:10394000846DD0F8B450466CD0F8987093EA0803B0
:10395000554094EA0B0496EA090697EA0E075FEAD7
:10396000B4245FEAF5255FEAB6565FEA776726EA90
:1039700005016140816527EA06016940C0F8B4107D
:1039800023EA07017140416424EA03017940C0F849
:1039900098100599A5434C696B4063404360D0F88B
:1039A0009C30816C4B40D0F8C4104B40016F4B40B1
:1039B000016A4B40876DC1684F40D0F884104F407A
:1039C000016B4F40D0F8AC104F4083EAF776009679
:1039D000D0F89860C16C4E40D0F8C0104E40416F96
:1039E0004E40416A4E40D0F85CE081689EEA010E8C
:1039F000D0F880109EEA010E416B9EEA010ED0F8CD
:103A0000A8109EEA010E96EA0E08CDF80480D0F8C0
:103A1000B050016E4D4041694D40D0F88C104D4082
:103A2000C16B4D4085EAF679CDF80890D0F8B440E6
:103A3000416E4C4001694C40D0F888104C40816B7D
:103A40004C40634003930368816F4B40C16A4B4015
:103A5000D0F8A4104B40016D4B4083EAF47A4668DD
:103A6000C16F4E40816A4E40D0F8A0104E40416D6B
:103A70004E4096EA050B446CD0F8B8104C40816E6D
:103A80004C4081694C40D0F894104C408EEAF4755B
:103A90000495056CD0F8BC104D40C16E4D40C16915
:103AA0004D40D0F890104D4097EA050285EAF67C2B
:103AB00094EA030E856A066B876B036C846C95EA47
:103AC0000805574096EA0B0693EA090394EA0C04AA
:103AD0005FEAB5755FEA76265FEA77075FEAB34388
:103AE0005FEAB45425EA04015940816226EA0501DF
:103AF0006140016327EA06016940816323EA070107
:103B00007140016424EA030179408164476DC36D0B
:103B1000446EC56E466F97EA0807544093EA0A035D
:103B200095EA090596EA0E065FEAF7575FEA7474AC
:103B30005FEA35555FEA367625EA0401594041656A
:103B400026EA05016140C16527EA06016940416630
:103B500023EA07017140C16624EA03017940416705
:103B6000DDF80080846FD0F88050D0F88860D0F8FD
:103B70009070D0F8983094EA0804564095EA0A0507
:103B800097EA090793EA0E035FEAB4345FEAF56542
:103B90005FEA36665FEA37175FEAB34325EA040156
:103BA0005940816726EA05016140C0F8801027EA84
:103BB00006016940C0F8881023EA07017140C0F887
:103BC000901024EA03017940C0F89810D0F8A4605E
:103BD000D0F8AC70D0F8B430D0F8BC40D0F8C450B5
:103BE00096EA0806534097EA0B0794EA090495EA17
:103BF0000C055FEA36365FEAF7775FEA73035FEA40
:103C000074145FEA753525EA04015940C0F8A41020
:103C100026EA05016140C0F8AC1027EA06016940B8
:103C2000C0F8B41023EA07017140C0F8BC1024EAC0
:103C300003017940C0F8C410DDF80C900368846873
:103C400005698669076A93EA0803554094EA0A04FD
:103C500096EA090697EA0C075FEAB4245FEAB525FD
:103C60005FEA76565FEA776726EA05016140816080
:103C700027EA06016940016123EA07017140816179
:103C800024EA0301794001620599A5438C696B40E0
:103C900063400360049AC56A466BC76B436CC46C8F
:103CA00095EA0805574096EA0A0693EA090394EA5A
:103CB0000E045FEAF5755FEAB6265FEAB7075FEACA
:103CC000B3435FEAB45425EA04015940C16226EACD
:103CD00005016140416327EA06016940C16323EAA7
:103CE00007017140416424EA03017940C164076D12
:103CF000836D046E856E066F97EA0807544093EA59
:103D00000B0395EA090596EA0C065FEAF7575FEAA6
:103D1000F3735FEA74745FEAF5455FEA367625EA85
:103D200004015940016526EA05016140816527EAE1
:103D300006016940016623EA07017140816624EAB1
:103D4000030179400167DDF80480C46FD0F8845026
:103D5000D0F88C60D0F89470D0F89C3094EA0804C5
:103D6000564095EA0B0597EA090793EA0C035FEAC8
:103D7000B4345FEAF5655FEA76665FEA37175FEAB3
:103D8000F34325EA04015940C16726EA0501614071
:103D9000C0F8841027EA06016940C0F88C1023EAB5
:103DA00007017140C0F8941024EA03017940C0F87B
:103DB0009C10D0F8A060D0F8A870D0F8B030D0F83F
:103DC000B840D0F8C05096EA0806534097EA0A0770
:103DD00094EA090495EA0E055FEAF6265FEAF777AA
:103DE0005FEA73035FEA34145FEA353525EA0401BC
:103DF0005940C0F8A01026EA05016140C0F8A8109B
:103E000027EA06016940C0F8B01023EA07017140B3
:103E1000C0F8B81024EA03017940C0F8C010DDF8FA
:103E200008904368C4684569C669476A93EA08030D
:103E3000554094EA0B0496EA090697EA0E075FEAF2
:103E4000B4245FEAF5255FEAB6565FEA776726EAAB
:103E500005016140C16027EA06016940416123EA2A
:103E600007017140C16124EA03017940416205996B
:103E7000A543CC696B40634051F8204F0591FF2C5E
:103E800043607EF443AE06B0BDE8F09F29B370B442
:103E9000134A144E144D44180021013C01380B46BE
:103EA00061B10139C9B200F8013FA0424FEA1323C2
:103EB000F6D1002070BC7047DB0708D4136813F0FC
:103EC000060FF9D0136813F0060FF7D1F4E72B783B
:103ED00031685B420B400321E5E70020704700BFDB
:103EE0000408065008080650000000202DE9F04F95
:103EF00091B000F5007305460E9201910F93019E5B
:103F00003268530803F0553302F055321344C3F3BB
:103F10000162C3F3816BC3F3815EC3F3015A07925D
:103F2000A2EB0B020C92AAEB0E02C3F301710B92EF
:103F30009A0F881A03F0030CC3F381010691ACEBCE
:103F400001010891C3F3014102910D900246C3F3B0
:103F50008140014605900298C3F38134401AC3F3AF
:103F60000131A1EB0408C3F301170A900394C3F3D2
:103F70000120C3F38124C3F381130491F91A099139
:103F80000E99A0EB0409C1B9089929803346099913
:103F9000698004330B9969810A980C9901930F9BEE
:103FA000A5F80490A5F806802881A981EA8110353A
:103FB0009D42A4D111B0BDE8F08FB5F80280E98828
:103FC000049EAA88B5F8009047440E44FF1A039B4C
:103FD000B5F80C806F80104431462A89029ECC448B
:103FE000C91AB5F80A90059BE9801644D144F61A1F
:103FF000B5F80EA00D9B079A2E815344EB814244E5
:10400000019B9046069A0433ACEB020C001BA9EB13
:104010000E09A8EB0B0801930F9BA5F800C0A88020
:10402000A5F80A90A5F80C801035AB427FF467AF75
:1040300011B0BDE8F08F00BF2DE9F04F0446E7B0A6
:10404000CDE90001CDE9032302F094FB04F50070F3
:1040500002F090FB4FF0000A0DF1240B06E0402E19
:104060006ED10AF1010ABAF1030F77D0709A5FFAA4
:104070008AF3002A6BD0DDE9032134A802F08CFC1E
:1040800034AA0121584602F0A3FC00274FEA4A2334
:104090003D463E4602930DF11C090BEB05021BF851
:1040A00005305478927843EA0423C3F30B032409C0
:1040B000B3F5506F44EA021405D87A1C042A29F893
:1040C000173011D01746B4F5506F06DDAB1DA82B85
:1040D000C5D8402EC5D00335DFE77B1C042B29F85B
:1040E00017403ED01F46F1E7029B03EB86072D4B9E
:1040F00033F91600019B05907F00D91903460098FB
:104100004FEAC60840444A4602F0C8FD019A059BA2
:1041100007F500711144009A08F5007010444A46F2
:1041200002F0BCFDB4F5506F06F1010638DC402EFC
:1041300097D0AB1DA82BA9F800404FF00107CAD9B2
:1041400034AA0121584602F043FC0025A5E71A468F
:1041500034A8DDE9033102F01FFC91E767B0BDE848
:10416000F08F029B009A03EB86040E4B33F9168006
:10417000019BF7006400D01919194A46434602F022
:104180008DFD019B009A07F5007004F5007119443C
:10419000104443464A46013602F080FD002795E769
:1041A000002793E7F02901082DE9F043ADF66C0DE7
:1041B0000F46804620210AA800F008FB202102A813
:1041C000FFF764FE02A908462022FCF763FE0023E5
:1041D0001A460AA9384601F00DFE0AA907F58060C3
:1041E0000023012201F006FE0AA907F50060002362
:1041F000022201F0FFFD384601F0A8FE00254646E8
:10420000A946ECB2224602AB39461AA8CDF8009076
:10421000FFF712FF1AA801F005FEE21CD2B200233C
:104220000AA90DF58D6001F0E5FD0DF58D611AA867
:1042300001F022FE1AA801F0EBFD013530461AA963
:1042400001F066FB032D06F5C076DAD102AC0FCC87
:10425000C8F88004C8F88414C8F88824C8F88C34D6
:104260000FCCC8F89004C8F89414C8F89824C8F87B
:104270009C340DF66C0DBDE8F08300BF2DE9F04FC6
:10428000ADF6A41D1C460593002304900691154627
:10429000079221461A46E8A802F07EF921460DF55C
:1042A000B4600023012202F077F9002321460DF5C6
:1042B000F460022202F070F9E8A802F033FB05F581
:1042C000906303934FF0000A0DF12C0B5FFA8AF311
:1042D00000930333DBB268A801934FF0000802F0AB
:1042E00049FACDF808A05FFA88F3009A039936A836
:1042F00002F052FB002436AA0121584602F068FB66
:10430000A24626464FEA082909AF03E03F2C06F1F2
:1043100003062CD80BEB06021BF806305578927872
:1043200043EA0523C3F30B032D09B3F5506F45EAA8
:10433000021506D80AF10102042A27F81A3072D0B1
:104340009246B5F5506F06DC0AF10103042B27F8FD
:104350001A507FD09A46B31DA82BD7D936AA01216F
:10436000584602F035FB3F2C4FF00006D2D908F139
:104370000108B8F1030FB6D168A8DDF808A002F073
:104380001FF9019A0599012368A802F005F968A8A8
:1043900002F026F9524668A904980AF1010A01F0D0
:1043A000DFFEBAF1030F91D1079C68A8214602F005
:1043B0009DF8E8AA104668A902F004F904F5C07156
:1043C00068A802F093F80DF5B46268A9E8A802F0B5
:1043D000FFF804F5407168A802F088F80DF5F46262
:1043E00068A9E8A802F0F4F8E8A802F0E9F80123C7
:1043F00005990622E8A802F0CFF8069968A802F00D
:10440000F5F8E8A968AA084602F0ECF8E8A802F076
:10441000E7F8049BE8A903F5707001F0C7FD0DF6FD
:10442000A41DBDE8F08F09EB8401E8AB03EB41016B
:10443000114B68A833F9143000EBC4003A4602F07F
:104440002DFCB5F5506F04F1010412DC3D804FF0F6
:10445000010A80E709EB8401E8AB03EB4101064B5D
:1044600068A833F9143000EBC4003A4602F016FC99
:1044700001344FF0000A6EE7F02901082DE9F04FF2
:10448000ADF5F05D85B01F460023039090460DF515
:10449000C2601A468B46394601F0ACFC39460DF530
:1044A00021600023012201F0A5FC39460DF5616071
:1044B0000023022201F09EFC0DF5C26001F046FDD2
:1044C0000DF5905408F5906A103400264FF001095C
:1044D000F5B22A4653460DF5C2612046CDF800904C
:1044E000FFF7AAFD204601F09DFCEA1C01232046AF
:1044F000D2B239461E4401F07DFC204601F006FD93
:10450000032E04F58064E3D104A8414601F0EEFFD8
:104510000DF5C26204A984A801F08EFC04A808F578
:10452000C07101F0E3FF0DF5216204A984A801F038
:1045300093FC08F5407104A801F0D8FF0DF5616205
:1045400004A984A801F088FC84A801F06BFC012375
:104550000622394684A801F04DFC594684A801F092
:10456000E5F984A801F0D2FC0DF5905184AA103130
:10457000039801F0B3F80DF5F05D05B0BDE8F08FDC
:1045800070B5ADF5006D15460646002268460C462E
:1045900001F03EFE684602F011F869462A460DF524
:1045A000806001F049FC214680A8012201F030FE24
:1045B00080A802F003F805F5806280A90DF58060FF
:1045C00001F04AFC214680A8022201F021FE80A8C9
:1045D00001F0F4FF05F5006280A90DF5806001F09F
:1045E0003BFC0DF5806001F01DFC04F5707180A8A6
:1045F00001F064FD0DF58062104680A901F04CFCCD
:104600000DF5806001F082FC0DF58061304601F00F
:10461000B3FA0DF5006D70BD38B50C460546FFF7D1
:10462000C3FD04F604439D4204F5406202D22B1DF3
:104630009A4216D32B4605F5946053F8041B42F8B2
:10464000041B8342F9D129464FF4946204F5855046
:10465000FCF720FC04F5AA50202100F0B7F8002058
:1046600038BD6B1E04F6FF3205F29F4013F8011FA0
:1046700002F8011F8342F9D1E5E700BF70B5A0B091
:1046800004460E4610A820211546FFF7FFFB10A98F
:1046900008462022FCF7FEFB294618A84FF4946236
:1046A000FCF7F8FB10A968464022FCF739FE08AB7E
:1046B0002A4610A92046FFF7E1FD214608A84FF43D
:1046C0008862FCF7E7FB30466A4640232021FCF76E
:1046D0003DFB002020B070BD2DE9F041EAB08046DE
:1046E0000AAD0AA816460F46FFF74AFF0FCD4AAC9F
:1046F0000FC495E80F0012AD84E80F000FCD5AAC3F
:104700000FC495E80F000AAD84E80F0006F5855147
:104710000AA8202200F078F80FCD52AC0FC495E81B
:104720000F0012AD84E80F000FCD62AC0FC495E806
:104730000F0084E80F004AA92AA84AAC00F094FAB6
:104740000FCC0DF1280CACE80F0094E80F0032AD4F
:104750008CE80F000FCD1AAC0FC495E80F005AADCE
:1047600084E80F000FCD12AC0FC495E80F0042ADE6
:1047700084E80F000FCD22AC0FC495E80F0084E849
:104780000F001AAB0AA906F540623846FFF776FE1D
:10479000394604464FF4886202A8FCF77BFB2023CD
:1047A000402202A92AA800921A4600F03DF82246AB
:1047B00006F5AA512AA800F077FA40462AA900F087
:1047C0001BFB00206AB0BDE8F08100BF38B50A4687
:1047D00005460C460844002105F046FD21462846C2
:1047E000BDE83840FFF752BB70B50B440C46054698
:1047F00016460021184405F037FD31462819BDE85A
:104800007040FFF743BB00BF70B5044615460E4627
:104810001044002105F028FD2A4631462046BDE817
:10482000704005F087BC00BFF8B5069C0646A0188E
:1048300015461F460C461A463044002105F014FD6B
:104840003A4621467019BDE8F84005F073BC00BF38
:10485000F8B515460F468E18044605F06BFC7DB37F
:104860002B1D1F44231D9E4238BFBC4229D36B1E03
:10487000042B26D925F0030737443146224651F848
:10488000040B1368B94283EA000342F8043BF6D1F3
:1048900025F003039D4206EB030011D0F15CE25CBE
:1048A0004A40591C8D42E2540AD94278665C023370
:1048B00072409D42625403D98278E15C4A40E254DE
:1048C000F8BD013C354416F8013B14F8012FAE4207
:1048D00083EA02032370F6D1F8BD00BF2DE9F0434F
:1048E000ADF5017D04460D4668464FF40071FFF7B3
:1048F000CDFA45EA04035B0749D1083C083DADF118
:1049000008017EA851F8083F4A6823F0F023A3F578
:104910000066C3F30F43B6B24FF0000E22F0F02250
:10492000A3F500639BB27746C2F30F4C66F30F0EFC
:10493000A2F5006263F31F4E92B2ACF5006C44F82E
:1049400008EF1FFA8CFC62F30F076CF31F476760D8
:1049500055F8088FD5F804904FF0000EA8EB060626
:10496000A9EB0207C3EB1843F04667F30F0866F3A1
:104970000F0ECCEB194263F31F4E62F31F488142C6
:10498000C4E980E8BED10DF5017DBDE8F083023CAD
:10499000023DADF102020DF5FF7032F8023FC3F3A4
:1049A0000B03A3F500639BB224F8023F35F8021F06
:1049B0008242A1EB0303A4F80032EED10DF5017D94
:1049C000BDE8F0832DE9F8434FF400720D4604462C
:1049D0000021154F05F048FCA61EA81E05F5FF7C1A
:1049E00040F6015530F9021FB0F900E287FB0123C0
:1049F00087FB0E8202EB0E0903EB01084FEAEE7211
:104A0000CB17C2EBE922C3EBE82305FB12E205FB5F
:104A100013131344844526F8023FE3D12046BDE832
:104A2000F84301F0DDBD00BF41BB7D9D38B50446B4
:104A30000D46FFF753FF05F5007104F58060FFF7A1
:104A40004DFF05F5806104F50060BDE83840FFF7D3
:104A500045BF00BF2DE9F047DFF86480064601F648
:104A6000FE5501F5FF7040F60157A0F50074B11E28
:104A700034F902CFB4F900E288FB0E3288FB0C93C4
:104A800002EB0E0A03EB0C094FEAEE724FEAEC73ED
:104A9000C2EBEA22C3EBE92307FB12E207FB13C3D5
:104AA0001344844221F8023FE2D1304601F098FDE0
:104AB00004F58060A84206F50076D6D1BDE8F087FF
:104AC00041BB7D9D70B40B464C6853F8205B8A68EF
:104AD000CE68C660056044608260CE690D694C692D
:104AE0008A69C661061DB34205614461826103D2D1
:104AF00001F12402904221D30B6A02684568846860
:104B00005A4002604B6AC2686B4043608D6A036919
:104B10006C408460CD6A44696A40C2600D6B8269F2
:104B20006B4003614D6BC3696C4044618C6B6240A8
:104B30008261CA6B5340C36170BC70470138403119
:104B400013F8012B10F8014F8B4282EA0402027025
:104B5000F6D170BC704700BF30B5ADF5CF5D81B008
:104B6000154604460DF55E6001F0FEF92946F8A8E9
:104B700001F0D6F921460DF5FC6001F063FE04F565
:104B8000707178A801F09AFA0DF5FC610DF55E627E
:104B9000084601F029FD0DF51E6108460DF58F52FE
:104BA00001F022FD0DF53E6108460DF5AF5201F012
:104BB0001BFD78A9F8AA084601F016FD10A8FBF71E
:104BC0003FFD10A80DF57E614FF40072FBF744FD28
:104BD00010A80DF59F514FF40072FBF73DFD10A892
:104BE0000DF5BF514FF40072FBF736FD0DF5BC61BA
:104BF00010A84FF40072FBF72FFD10A8FBF772FD11
:104C000010AA68462021FBF799FD44A8FBF718FD80
:104C10000DF5FC6144A84FF40072FBF71DFD0DF586
:104C20001E6144A84FF40072FBF716FD0DF53E61BE
:104C300044A84FF40072FBF70FFD78A944A84FF485
:104C40000072FBF709FD44A8FBF74CFD44AA08A835
:104C50002021FBF773FD08A96846202201F02AFFF6
:104C60000DF5CF5D01B030BD30B5402483B00025D7
:104C70000A4601F14003CDE9004500F14001FDF78E
:104C800025FA03B030BD00BF00B585B001F12003A7
:104C9000CDE90013029200F1800180220023FDF78C
:104CA00057FA05B05DF804FB031D52429942F0B477
:104CB000D4B202D20B1D98427FD3002364F30703C2
:104CC0000A680668456864F30F2364F3174364F3C6
:104CD0001F6372401A40724002604A6886686A40E8
:104CE0001A406A4042608A68C56872401A40724041
:104CF0008260CA6806696A401A406A40C2600A69EE
:104D0000456972401A40724002614A6986696A4088
:104D10001A406A4042618A69C56972401A4072400D
:104D20008261CA696A4013406B40C36100F140036D
:104D300001F12402934205D201F1200300F1440263
:104D4000934249D3002364F307030A6A056C64F3B2
:104D50000F2364F3174364F31F636A401A406A40E9
:104D600002644A6A446C856C62401A406240426444
:104D70008A6AC46C6A401A406A408264CA6A056DD5
:104D800062401A406240C2640A6B446D6A401A4035
:104D90006A4002654A6B856D62401A406240426516
:104DA0008A6BC46D6A401A406A408265CA6B624071
:104DB00013406340C365F0BC7047451E4E1E00F1B2
:104DC0001F0715F8012F16F8013F534023405340A9
:104DD000AF422B70F5D1A9E700F13F051F315F30DD
:104DE00015F8012F11F8013F5340234053408542ED
:104DF0002B70F5D1F0BC704700B501F1400383B0D2
:104E0000CDE900132022002300F12001FDF71EFA56
:104E100003B05DF804FB00BF2DE9F04FADF5457D13
:104E200000F23E2A00F23E43B84D0A91D3460C935D
:104E30000DF1B0090DF58C789246002168224846A4
:104E4000CDE90E11CDE91011CDE91211CDE9141102
:104E5000CDE91611CDE91811CDE91A1105F004FAC2
:104E600000216822404605F0FFF9A94B1878494611
:104E700040422A6812F00603FBD1D607F9D5A54AAD
:104E800012680240C1E9002208314145F1D1D9F848
:104E900018200092D9F820200192D9F828200292F7
:104EA000D9F830200392D9F838200492D9F840205C
:104EB0000592D9F848200692D9F850200792D9F8DF
:104EC00058200892D9F800E0D9F86020D9F808C035
:104ED000D9F8107009922A6812F0060FFBD1D40796
:104EE000F9D58C4A12680240C2F30B01B1F5506F3C
:104EF0004FEA123204D9C2F30B01B1F5506FEAD870
:104F0000C1F500521CAC92B224F81310C2F3400158
:104F1000994002F001069E40009C8CEA010CC2F30D
:104F2000C00199408EEA060EC2F380069E404C40B6
:104F300000947740019CC9F800E0C2F300169E403F
:104F400074400194C2F34011029CC9F808C0994012
:104F50004C400294C2F38016039CC9F810709E4026
:104F600074400394C2F3C011049C99404C40C2F3B6
:104F700000260494059C9E407440C2F34021059491
:104F8000069C99404C40C2F380260694079C9E40A4
:104F90007440C2F3C02126460794089C99404C40B7
:104FA00021460894C2F30032099C9A40544022469C
:104FB0000994009CC9F81840019CC9F82040029C43
:104FC000C9F82840039CC9F83040049CC9F838400F
:104FD0000133059CC9F84040202B069CC9F8484085
:104FE000C9F85060C9F85810C9F860207FF473AF51
:104FF0005FAA2B6813F0060FFBD1D907F9D5454BF3
:105000001B68034042F8043FC3AB9342F1D10A9CB2
:1050100012A922460EA804F01FF904F1800213A978
:105020000FA804F019F960AB12AA0EA916A804F093
:10503000C9FC6EAB4A4616A9404604F0DFF8D8E931
:105040000312D8F81430D8F80040D8F82C70D8E9FA
:10505000016053400093D8E90623664080EA0104CA
:105060000494C8F80840D8F8284007965A4001929E
:105070006740D8E90C42D8F82030C8F800605440A6
:105080000994009CC8F810401E46D8F83840D8F85B
:105090002430D8E9101073402646D8F83C400293DB
:1050A00066404140D8E9142303960B91D8F8480094
:1050B000099CC8F830400646D8F84C00039CC8F854
:1050C0002870704082EA0306019A029BC8F81820F3
:1050D000C8F82030D8E9162353400D900596C8F83B
:1050E0003840C8F84010C8F84800C8F85060069327
:1050F000C8F85830BAF1000F00F0A081ABF23E21A1
:1051000011F0070340F06D8206E000BF040806506E
:105110000000002008080650DDE91C40D1F804C05A
:10512000821EC0F30F400238624400EB1C409C46D4
:10513000064662F30F0C0868C4F30F42A4F1020E96
:10514000023A864402EB104218466EF30F0066F3F3
:105150001F4C62F31F40C1E9000CDDE91EC2ABF237
:105160003621ACF10200D1F800E0CCF30F4CACF1E9
:10517000020C0CEB1E4470449C4660F30F0CA2F131
:10518000020E4868C2F30F42023A864402EB104214
:1051900018466EF30F0064F31F4C62F31F40C1E921
:1051A00000C0DDE920C2ABF22E21ACF10200D1F843
:1051B00000E0CCF30F4CACF1020C0CEB1E4470443D
:1051C0009C4660F30F0CA2F1020E4868C2F30F4236
:1051D000023A864402EB104218466EF30F0064F365
:1051E0001F4C62F31F40C1E900C0DDE922C2ABF2EF
:1051F0002621ACF10200D1F800E0CCF30F4CACF169
:10520000020C0CEB1E4470449C4660F30F0CA2F1A0
:10521000020E4868C2F30F42023A864402EB104283
:1052200018466EF30F0064F31F4C62F31F40C1E990
:1052300000C0DDE924C2ABF21E20ACF10201D0F8BF
:1052400000E04668CCF30F4CACF1020C0CEB1E44B2
:1052500071449E4661F30F0E911EC2F30F4231441A
:105260009C46023A02EB164261F30F0C64F31F4EA8
:1052700062F31F4CC0E900ECABF21621D1F800E05C
:10528000DDE926C2ACF10200CCF30F4CACF1020C0C
:105290000CEB1E4470449C4660F30F0CA2F1020E0E
:1052A0004868C2F30F42023A864402EB10421846A5
:1052B0006EF30F0064F31F4C62F31F40C1E900C09E
:1052C000DDE928C2ABF20E21ACF10200D1F800E01A
:1052D000CCF30F4CACF1020C0CEB1E4470449C461A
:1052E00060F30F0CA2F1020E4868C2F30F42023ABB
:1052F000864402EB104218466EF30F0064F31F4C15
:1053000062F31F40C1E900C0DDE92AE2ABF20621E9
:10531000AEF102000C68CEF30F4EAEF1020E204447
:105320000EEB144E4C689C4660F30F03901EC2F3C4
:105330000F42023A204460F30F0C02EB14426EF36A
:105340001F4362F31F4CC1E9003CABF14002CDF8B2
:1053500020B00D98DDF82CB0DDF824C0079EBAF11E
:10536000000F68D1A2F802A0D646069C059904F069
:10537000010301F0010141EA430100F0010343EAA6
:1053800041010BF0010343EA4103039901F00101DC
:1053900041EA43010CF0010343EA410107F0010334
:1053A00043EA4103029901F0010141EA4301019BF3
:1053B00003F0010343EA4101009B03F0010343EAC8
:1053C0004103049901F0010141EA430106F00103A0
:1053D00043EA41030599640806944C08039905942F
:1053E00073444C08029922F8023F019B03944C0835
:1053F00002945C08009B049901945B0800934B089D
:105400000493089B93424FEA50004FEA5B0B4FEA2C
:105410005C0C4FEA57074FEA5606A0D103F1400B48
:105420000A9B10330A930C9B5B457FF406AD0DF588
:10543000457DBDE8F08FB2F802E096E7ABF23E237F
:1054400018464022514604F00FFF4207034640F041
:10545000D780DDE91C215046A1F1020CC1F30F41B8
:1054600002396CF30F0061F31F40A2F1020C5146A8
:10547000C2F30F42023A6CF30F0162F31F41C3E91A
:105480000010DDE91E235046911EA3F1020C61F3CA
:105490000F00C2F30F42C3F30F435146023A023BDF
:1054A0006CF30F0162F31F4063F31F41ABF2362C24
:1054B000CCE90001DDE920235046911EA3F1020C46
:1054C00061F30F00C2F30F42C3F30F435146023A98
:1054D000023B6CF30F0162F31F4063F31F41ABF219
:1054E0002E2CCCE90001DDE922235046911EA3F1C8
:1054F000020C61F30F00C2F30F42C3F30F43514696
:10550000023A023B6CF30F0162F31F4063F31F4149
:10551000ABF2262CCCE90001DDE924235046911E94
:10552000A3F1020C61F30F00C2F30F42C3F30F4368
:105530005146023A023B6CF30F0162F31F4063F3E2
:105540001F41ABF21E2CCCE90001DDE926235046B9
:10555000911EA3F1020C61F30F00C2F30F42C3F3DB
:105560000F435146023A023B6CF30F0162F31F40B6
:1055700063F31F41ABF2162CCCE90001DDE92823CF
:105580005046911EA3F1020C61F30F00C2F30F42CB
:10559000C3F30F435146023A023B6CF30F0162F32F
:1055A0001F4063F31F41ABF20E2CCCE90001DDE993
:1055B0002A235046911EA3F1020C61F30F00C2F39F
:1055C0000F42C3F30F4351466CF30F01023A023B03
:1055D000ABF2062C62F31F4063F31F41CCE90001DC
:1055E000B3E6079EABF510711CAA31F8023F32F901
:1055F000020B023B034491450B80F6D10796A4E6CB
:10560000079E0DF16E03ABF510710DF1AE0033F88E
:10561000022F023A984221F8022FF8D1079694E619
:105620002DE9F04F85B005460E9E7600A6F10209E1
:1056300002EB090A99443E3333440C46019339F98D
:10564000023F3AF8021F109ABAF80062ADF808104B
:10565000581CADF80A60B0FBF2F102FB11010F9A81
:10566000029832F9116032F913B001F0CFF9034614
:1056700087B2B81B1E14314600B20393FCF766F8DC
:10568000804607F50060A0EB0B00314600B2FCF746
:105690005DF82B685B002B6023685B0023602B6840
:1056A000C0F3C02003432B602368C8F3C02843EA3B
:1056B000080323606B685B006B6063685B0063607A
:1056C0006B68C6F3C02633436B6063681E43019B5F
:1056D00066604B45B3D105B0BDE8F08F2DE9F04FC2
:1056E0000024ADF50F7DCDE90B4400F57073DFF8B4
:1056F000189209900A940892059006930D944FF021
:10570000FF360F460EAB07931A46059B0DF50E7834
:1057100093F801A0D97893F800C093F802E04FEA1B
:105720000A2000F440704CEA000C080100F47C7080
:105730004FEA8E1540EA1E1093F804E0A2F800C06C
:1057400005F47075890945EA9A0541EA8E0155808C
:105750009080D1800832904503F10503D8D100250F
:105760004FF4806A654BCDF808A0CDE900533A4666
:105770000CA90AA80EABFFF753FFDDE90B01DDF81A
:1057800028E0DDF834B00EEA0102D9F8003013F059
:10579000060FFAD1DB07F8D5594B93F800C0594BE7
:1057A0001B688EEA000ECCF1000C08400EEA0B0ECE
:1057B00003EA0C018EEA00004A4080EA010306EA8F
:1057C0000200D9F8001011F0060BFAD1C907F8D57C
:1057D0004C490968664001EA0C01144020351E401E
:1057E0004C40B5F5807F84EA060481EA0006B9D111
:1057F000059B069A03F5A0739A42059307F5806707
:1058000080D1099B079D03F5717313F8047C13F88D
:10581000030C13F8021C13F8012C07F00F0C3F09BE
:105820006F8000F00F070009E88001F00F00288169
:10583000090902F00F001209A5F800C0AF806981C4
:10584000A881EA811035A84503F10403DDD1DFF812
:10585000BC802D4D2B4F4FF0100A0EAB089ACDF89F
:1058600000B0CDE9018A0CA90AA8FFF7D9FE0AAB5E
:1058700093E80850DDF8349003EA0E02296811F02D
:10588000060FFBD1C907F9D51D49386809788CEA9C
:1058900003034942084003EA09030CEA0E0C83EAB9
:1058A0000C0C42408CEA000C06EA02002B6813F054
:1058B000060FFBD1DB07F9D53B6866401940144061
:1058C0000BF1200B06EA0C064C40BBF5807F84EA06
:1058D000060481EA0006C0D186EA040000EA10400E
:1058E00000EA102000EA101000EA900000EA5000E0
:1058F00080F001000DF50F7DBDE8F08FD01F01088D
:10590000000000200808065004080650D0270108AF
:1059100010B5ADF5007D04466846FFF753F86946BB
:10592000204600F0C7FD0DF5007D10BD2DE9F04FBC
:1059300085B003460190834601F1FF3C884601F1A2
:105940001F0E40F281601CF8012F1C88B3F80290F2
:105950009F88DE881D8942F3000A00EA0A0AA244F1
:1059600042F3400404404C4442F3800900EA090930
:10597000B94442F3C0070740374442F300160640DB
:105980002E44A3F800A042F34015B3F80AA05C80AF
:105990000540554442F38014B3F80CA0A3F80490DA
:1059A00042F3C012B3F80E90DF800440024054442A
:1059B0004A44E6451E815D819C81DA8103F1100332
:1059C000C1D101F12002019B019201F13F0A40F295
:1059D00081611EF8012FB3F800C2B3F80272B3F868
:1059E0000462B3F80652B3F80842B3F80A0242F36D
:1059F000000901EA0909E14442F3400C01EA0C0CF8
:105A0000BC4442F380070F40374442F3C0060E40C7
:105A10002E4442F300150D40254442F340140C403F
:105A20000444A3F8009242F38010B3F80C92A3F858
:105A300002C242F3C012B3F80EC2A3F804720840C7
:105A40000A4048446244F245A3F80662A3F80852AB
:105A5000A3F80A42A3F80C02A3F80E2203F11003E4
:105A6000B7D1DDF8049041F6022A5C4600250221F8
:105A700003A8FEF70BFABDF80C30C3F30B03B3F524
:105A8000506FADF80C30F2DC98F80000284100F0BF
:105A90000100AAEB0000C01A02F07EFA06460221BD
:105AA0000DF10E00FEF7F2F9BDF80E30C3F30B0353
:105AB000B3F5506FADF80E30F1DC99F800002841D5
:105AC00000F0010000F60150C01A02F065FABDF8BE
:105AD0000E20B4F900300746BDF80C0010FB023070
