:020000040800F2
:1000000000C00120617D01085F7D01085D7D010860
:100010005D7D01085D7D01085D7D01080000000037
:100020000000000000000000000000005F7D0108EB
:100030005F7D0108000000005F7D0108DDFC000815
:100040005D7D01085D7D01085D7D01085D7D010824
:100050005D7D01085D7D01085D7D01085D7D010814
:100060005D7D01085D7D01085D7D01085D7D010804
:100070005D7D01085D7D01085D7D01085D7D0108F4
:100080005D7D01085D7D01085D7D01085D7D0108E4
:100090005D7D01085D7D01085D7D01085D7D0108D4
:1000A0005D7D01085D7D01085D7D01085D7D0108C4
:1000B0005D7D01085D7D01085D7D01085D7D0108B4
:1000C0005D7D01085D7D01085D7D01085D7D0108A4
:1000D0005D7D01085D7D01085D7D01085D7D010894
:1000E0005D7D01085D7D01085D7D01085D7D010884
:1000F0005D7D01085D7D01085D7D01085D7D010874
:100100005D7D01085D7D01085D7D01085D7D010863
:100110005D7D01085D7D01085D7D01085D7D010853
:100120005D7D01085D7D01085D7D01085D7D010843
:100130005D7D01085D7D01085D7D01085D7D010833
:100140005D7D01085D7D01085D7D01085D7D010823
:100150005D7D01085D7D01085D7D01085D7D010813
:100160005D7D01085D7D01085D7D01085D7D010803
:100170005D7D01085D7D01085D7D01085D7D0108F3
:100180005D7D01085D7D01085D7D01085D7D0108E3
:100190005D7D01085D7D01085D7D01085D7D0108D3
:1001A0005D7D01085D7D01085D7D010838B50A4D62
:1001B0000024214605F108004FF41062C5E900440F
:1001C00010F030F805F6081021464FF4787210F060
:1001D00029F8204638BD00BFC009002010B5064BE5
:1001E000002403F6EC404FF48862AA21C3F8E84CDF
:1001F00010F018F8204610BDC009002038B5064C94
:1002000004F510654021224673200C440FF046FF90
:10021000A542F7D1002038BDC809002038B5094BE8
:10022000002203F6EC44C3F8E82C04F5886540216D
:1002300022466C200C440FF031FFA542F7D100207C
:1002400038BD00BFC009002038B5094C04F57075F1
:100250004021224674200C440FF020FFA542F7D124
:10026000044A202174200FF019FF002038BD00BF80
:10027000C81200208816002010B5074C202104F178
:10028000340261200FF00AFF04F1540220216120A2
:100290000FF004FF002010BDB81A002010B5064B67
:1002A000002403F1080103F60810C3E9004404F038
:1002B00039F8204610BD00BFC009002008B5054828
:1002C000054900F6081200F6EC4004F045F800205D
:1002D00008BD00BFC0090020EC1A002010B5064B75
:1002E0000648002403F1080203F6EC41C3F8E84C89
:1002F00004F00CF9204610BDC00900200C1B0020A2
:1003000070B40D4C2668B6F5106F11D004F10801D9
:10031000731E04F14705421E0B44C1F1020035442F
:10032000C118216012F8011F03F8011FAB42F7D179
:10033000002070BC704700BFC009002070B40E4C94
:10034000D4F8E86CB6F5886F12DA04F6EC41731E47
:1003500004F62B55421E0B44C1F102003544C1186E
:10036000C4F8E81C12F8011F03F8011FAB42F6D1D4
:10037000002070BC704700BFC00900200E494A68C9
:10038000B2F5787F15D030B4531E01F6081401F68B
:10039000271523440138C4F102041544E2184A60C9
:1003A00010F8012F03F8012FAB42F7D1002030BC29
:1003B00070470020704700BFC00900200020704730
:1003C000024B0020C3E90000704700BFC0090020B5
:1003D000002070471349031D01F13402934203D9F1
:1003E00001F13803984213D370B404684268C668B8
:1003F00005694C638A63446982698368CB63C1E998
:100400001065C1E91242C3690B65002070BC7047DA
:10041000431E543113F8010F02F8010B9142F9D138
:1004200000207047B81A002010B50A4B0A488EB059
:1004300003F1080203F6EC410024C3F8E84C04F091
:1004400065F80649024601A80FF080FF01A80FF0E9
:100450002DFCFBE7C00900200C1B0020687E010872
:1004600008B501200FF0C0FB1F4A012167200FF0E3
:10047000EFFC1E4A012172200FF0EAFC1C4A012108
:1004800073200FF0E5FC1B4A012174200FF0E0FC03
:10049000194A40216B200FF0DBFC184A20216D2007
:1004A0000FF0D6FC164A012161200FF0D1FC154A4D
:1004B00001216F200FF0CCFC134A01216C200FF0BA
:1004C000C7FC124A40216A200FF0C2FC104A0121E9
:1004D00065200FF0BDFC0F4A012170200FF0B8FC21
:1004E0000FF0D0FCFCE700BF9D020008AD01000842
:1004F000FD01000849020008010300087D0300080F
:1005000079020008DD0100081D0200083D03000813
:10051000BD020008DD02000870B582B0A72A1446AB
:1005200006460D468DF807300DD92946A82300222E
:10053000304601F0E5F9A83C304601F061FDA72CFA
:1005400005F1A805F1D894B922460DF1070130460E
:10055000012301F0D5F980240DF107013046012374
:10056000A7228DF8074001F0CBF902B070BD2946F3
:1005700023460022304601F0C3F9A72CE4D19DF8B0
:1005800007302246304663F07F040DF10701012356
:100590008DF8074001F0B4F902B070BD70B582B0BB
:1005A000872A144606460D468DF807300DD9294690
:1005B00088230022304601F0A3F9883C304601F040
:1005C0001FFD872C05F18805F1D894B922460DF15D
:1005D00007013046012301F093F980240DF1070152
:1005E0003046012387228DF8074001F089F902B0D7
:1005F00070BD294623460022304601F081F9872C40
:10060000E4D19DF807302246304663F07F040DF1B7
:10061000070101238DF8074001F072F902B070BDA7
:1006200008B50021C8220FF0FDFD0021034600207F
:10063000C3E9320108BD00BF2DE9F84F1646D0E9E5
:100640003223002712EB060B43EB070CBCF1000F23
:1006500008BFBBF1A80F04468A4630D3C2F1A803F5
:100660005146204601F04CF9D4F8C8300021002250
:10067000C4E932122046A3F1A802C3F1A80316442C
:100680009A4401F0BDFCD4E93223002712EB06089E
:1006900043EB0709B9F1000F08BFB8F1A80F3546C1
:1006A000DCD233465146204601F02AF9D4E93232F1
:1006B0005D1942EB0707C4E93257BDE8F88F3546AC
:1006C000EFE700BF30B5D0E9322383B0002B4FF005
:1006D0001F0108BFA72A04468DF8071014D00DF19A
:1006E0000701012301F00CF980250DF10701012319
:1006F000A72220468DF8075001F002F900220023BE
:10070000C4E9322303B030BD9F250123A7220DF198
:1007100007018DF8075001F0F3F8EFE72DE9F047F6
:10072000D2E932454FF00009A94508BFA14216465B
:100730008A460746C4F1A8020ED20B46014630464F
:1007400001F05EFAD6E93232B3EB0A0362EB09023A
:10075000C6E93232BDE8F08723460146304601F053
:100760004FFAD6E932321B1B62EB05022744BAEB83
:100770000404C6E93232EDD027444FF000084FF0B0
:100780000009304601F03CFC3D1BA72C4FF0A803AC
:100790004FF00002294630460AD82346002201F0D5
:1007A0002FFAC4F1A8040023C6E93243BDE8F0875C
:1007B00001F026FAA83CC6E93289E2D1CAE700BFB7
:1007C000D0220FF095BC00BF704700BF08B50021D4
:1007D000C8220FF027FD002103460020C3E93201A3
:1007E00008BD00BF2DE9F84F1646D0E93223002797
:1007F00012EB060B43EB070CBCF1000F08BFBBF17B
:10080000880F04468A4630D3C2F1880351462046F9
:1008100001F076F8D4F8C83000210022C4E9321281
:100820002046A3F18802C3F1880316449A4401F0DC
:10083000E7FBD4E93223002712EB060843EB070954
:10084000B9F1000F08BFB8F1880F3546DCD2334646
:100850005146204601F054F8D4E932325D1942EB9A
:100860000707C4E93257BDE8F88F3546EFE700BF08
:1008700030B5D0E9322383B0002B4FF01F0108BF01
:10088000872A04468DF8071014D00DF107010123C3
:1008900001F036F880250DF107010123872220465B
:1008A0008DF8075001F02CF800220023C4E9322310
:1008B00003B030BD9F25012387220DF107018DF87C
:1008C000075001F01DF8EFE72DE9F047D2E9324576
:1008D0004FF00009A94508BFA14216468A460746BF
:1008E000C4F188020ED20B460146304601F088F969
:1008F000D6E93232B3EB0A0362EB0902C6E93232BF
:10090000BDE8F08723460146304601F079F9D6E983
:1009100032321B1B62EB05022744BAEB0404C6E922
:100920003232EDD027444FF000084FF00009304636
:1009300001F066FB3D1B872C4FF088034FF000024F
:10094000294630460AD82346002201F059F9C4F15D
:1009500088040023C6E93243BDE8F08701F050F96E
:10096000883CC6E93289E2D1CAE700BFD0220FF045
:10097000BFBB00BF704700BFF0B50F4683B0154640
:100980000021C82204461E460FF04CFC0C49ADF86D
:100990000670204608230022009141F201076946B3
:1009A000ADF8047000F0ACFF204601F029FB3246A0
:1009B000294620460423FFF7AFFD03B0F0BD00BF7A
:1009C00001A8010081B170B5054616460C463046B7
:1009D00001F016FBA8232946002230461D4401F0F1
:1009E0000FF9013CF3D170BD704700BF2DE9F04F06
:1009F000BFB0CDE9040100218B4614460AA8C822E5
:100A00001E46489D544F0FF00DFC08235A4608A976
:100A10000AA8ADF8264041F201040897CDE93CBB95
:100A2000ADF8244000F06CFF0AA801F0E9FADDE916
:100A30003C23511943EB0B0302910393DDE90201BF
:100A4000002908BFA8285F46C0F083805C46314675
:100A5000C2F1A8030AA800F053FF3C9B3D97A3F105
:100A6000A8020AA8C3F1A80315443C941E4401F04F
:100A7000C7FADDE93C20002112EB050840EB010933
:100A8000B9F1000F08BFB8F1A80FE0D22C460F460D
:100A90002B4631460AA800F033FFDDE93C32E3186B
:100AA000009347EB02030193DDE90012002A4FF0A7
:100AB000040308BFA729CDE93C128DF81F303DD0B3
:100AC000009A0DF11F0101230AA800F019FF8024EC
:100AD0000DF11F010123A7220AA88DF81F4000F085
:100AE0000FFF049E00252B46A82231460AA8CDE917
:100AF0003C5501F085F8059B2F46ABB11C463346AB
:100B000023441E46A8460AA801F07AFA351BA72CF2
:100B10004FF0A8034FF0000229460AA807D8234641
:100B20000AA8002201F06CF83FB0BDE8F08F01F098
:100B300067F8A83CCDE93C78E5D1F5E784240123AA
:100B4000A7220DF11F010AA88DF81F4000F0D8FE62
:100B5000C7E72C469CE700BF01A8010070B50C4612
:100B600015460021C8220FF05DFB2A4621461F23AF
:100B7000BDE87040D0E400BF81B170B505461646AF
:100B80000C46304601F03CFAA823294600223046A4
:100B90001D4401F035F8013CF3D170BD704700BF32
:100BA0002DE9F04FBBB0CDE90201174606A8C822D7
:100BB000002100251E460FF035FB002D4FF00002EE
:100BC00008BFA82ECDE93822C0F085809246934612
:100BD000C2F1A803394606A800F092FE389BCDF872
:100BE000E4A0A3F1A80206A8C3F1A80316441F4479
:100BF000CDF8E0B001F004FADDE93823002512EB6E
:100C0000060843EB0509B9F1000F08BFB8F1A80FBA
:100C10003446DDD23346394606A800F071FEDDE9E0
:100C20003832E318009345EB02030193DDE900122B
:100C3000002A4FF01F0308BFA729CDE938128DF80D
:100C400017303DD0009A0DF11701012306A800F0DE
:100C500057FE80240DF117010123A72206A88DF865
:100C6000174000F04DFE029E00252B46A82231467B
:100C700006A8CDE9385500F0C3FF039B2F46ABB162
:100C80001C46334623441E46A84606A801F0B8F980
:100C9000351BA72C4FF0A8034FF00002294606A8E9
:100CA00007D8234606A8002200F0AAFF3BB0BDE803
:100CB000F08F00F0A5FFA83CCDE93878E5D1F5E745
:100CC0009F240123A7220DF1170106A88DF81740D4
:100CD00000F016FEC7E7344600229BE7704700BFCE
:100CE000C8220FF005BA00BF70B50C4615460021AA
:100CF000C8220FF097FA2A4621461F23BDE870400C
:100D00004CE400BF81B170B5054616460C4630462E
:100D100001F076F988232946002230461D4400F070
:100D20006FFF013CF3D170BD704700BF2DE9F04F5C
:100D3000BBB0CDE90201174606A8C8220021002554
:100D40001E460FF06FFA002D4FF0000208BF882EEC
:100D5000CDE93822C0F0858092469346C2F18803DF
:100D6000394606A800F0CCFD389BCDF8E4A0A3F1ED
:100D7000880206A8C3F1880316441F44CDF8E0B0EA
:100D800001F03EF9DDE93823002512EB060843EBBC
:100D90000509B9F1000F08BFB8F1880F3446DDD25C
:100DA0003346394606A800F0ABFDDDE93832E318DA
:100DB000009345EB02030193DDE90012002A4FF096
:100DC0001F0308BF8729CDE938128DF817303DD0B1
:100DD000009A0DF11701012306A800F091FD80246F
:100DE0000DF117010123872206A88DF8174000F0A6
:100DF00087FD029E00252B468822314606A8CDE9B4
:100E0000385500F0FDFE039B2F46ABB11C46334620
:100E100023441E46A84606A801F0F2F8351B872C8D
:100E20004FF088034FF00002294606A807D8234652
:100E300006A8002200F0E4FE3BB0BDE8F08F00F011
:100E4000DFFE883CCDE93878E5D1F5E79F24012322
:100E500087220DF1170106A88DF8174000F050FD0C
:100E6000C7E7344600229BE7704700BFC8220FF057
:100E70003FB900BF2DE9F04FBBB016460390C82222
:100E80000F4606A8002100250FF0CCF9002D4FF0E9
:100E9000000208BF882ECDE938226ED392469346D1
:100EA000C2F18803394606A800F02AFD389BCDF828
:100EB000E4A0A3F1880206A8C3F1880316441F44E6
:100EC000CDF8E0B001F09CF8DDE93823002512EB05
:100ED000060843EB0509B9F1000F08BFB8F1880F08
:100EE0003446DDD23346394606A800F009FDDDE977
:100EF0003832E318009345EB02030193DDE9001259
:100F0000002A4FF0060308BF8729CDE938128DF873
:100F1000173027D0009A0DF11701012306A800F021
:100F2000EFFC80240DF117010123872206A88DF81C
:100F3000174000F0E5FC039E00233146882206A8F6
:100F400000240025CDE9384500F05AFE06A801F03E
:100F500057F8314606A82023002200F051FE3BB08E
:100F6000BDE8F08F8624012387220DF1170106A822
:100F70008DF8174000F0C4FCDDE734460022B1E7ED
:100F800008B50021C8220FF04DF9002103460020CA
:100F9000C3E9320108BD00BF2DE9F84F1646D0E97C
:100FA0003223002712EB060B43EB070CBCF1000FBA
:100FB00008BFBBF1880F04468A4630D3C2F18803CC
:100FC0005146204600F09CFCD4F8C8300021002295
:100FD000C4E932122046A3F18802C3F18803164403
:100FE0009A4401F00DF8D4E93223002712EB0608E9
:100FF00043EB0709B9F1000F08BFB8F1880F354678
:10100000DCD233465146204600F07AFCD4E9323235
:101010005D1942EB0707C4E93257BDE8F88F354642
:10102000EFE700BF70B5D1E93223A4B0002B0C4626
:1010300008BF872A4FF0060105468DF8071029D012
:101040000DF107010123204600F05AFC80260DF126
:1010500007010123872220468DF8076000F050FC2D
:1010600000220023C4E93223204600F0C9FF2046B5
:1010700002A98823002202AC00F0C2FD0FCC286038
:101080006960AA60EB600FCC28616961AA61EB61BD
:1010900024B070BD8626012387220DF1070120466A
:1010A0008DF8076000F02CFCDAE700BFD0220FF0CB
:1010B0001FB800BF704700BF08B50021C8220FF05D
:1010C000B1F8002103460020C3E9320108BD00BF8A
:1010D0002DE9F84F1646D0E93223002712EB060B14
:1010E00043EB070CBCF1000F08BFBBF1680F0446CF
:1010F0008A4630D3C2F168035146204600F000FC16
:10110000D4F8C83000210022C4E932122046A3F1ED
:101110006802C3F1680316449A4400F071FFD4E9F1
:101120003223002712EB060843EB0709B9F1000F41
:1011300008BFB8F1680F3546DCD233465146204629
:1011400000F0DEFBD4E932325D1942EB0707C4E957
:101150003257BDE8F88F3546EFE700BFF0B5D1E96B
:1011600032239DB0002B0C4608BF672A4FF00601C2
:1011700005468DF807102BD00DF1070101232046FD
:1011800000F0BEFB80260DF10701012367222046F7
:101190008DF8076000F0B4FB00220023C4E932237D
:1011A000204600F02DFF204602A96823002200F00F
:1011B00027FD02AE0EAF34460FCCBC4228606960FA
:1011C000AA60EB60264605F11005F4D11DB0F0BD14
:1011D0008626012367220DF1070120468DF807605E
:1011E00000F08EFBD8E700BFD0220EF081BF00BF19
:1011F000704700BF2DE9F04FBBB016460390C822E0
:101200000F4606A8002100250FF00CF8002D4FF026
:10121000000208BF682ECDE938226ED3924693466D
:10122000C2F16803394606A800F06AFB389BCDF886
:10123000E4A0A3F1680206A8C3F1680316441F44A2
:10124000CDF8E0B000F0DCFEDDE93823002512EB3C
:10125000060843EB0509B9F1000F08BFB8F1680FA4
:101260003446DDD23346394606A800F049FBDDE9B5
:101270003832E318009345EB02030193DDE90012D5
:10128000002A4FF0060308BF6729CDE938128DF810
:10129000173027D0009A0DF11701012306A800F09E
:1012A0002FFB80240DF117010123672206A88DF87A
:1012B000174000F025FB039E00233146682206A854
:1012C00000240025CDE9384500F09AFC06A800F07E
:1012D00097FE314606A83023002200F091FC3BB077
:1012E000BDE8F08F8624012367220DF1170106A8BF
:1012F0008DF8174000F004FBDDE734460022B1E72B
:101300002DE9F04FBBB016460390C8220F4606A841
:10131000002100250EF086FF002D4FF0000208BFCF
:10132000482ECDE938226ED392469346C2F1480347
:10133000394606A800F0E4FA389BCDF8E4A0A3F102
:10134000480206A8C3F1480316441F44CDF8E0B094
:1013500000F056FEDDE93823002512EB060843EBCA
:101360000509B9F1000F08BFB8F1480F3446DDD2C6
:101370003346394606A800F0C3FADDE93832E318EF
:10138000009345EB02030193DDE90012002A4FF0C0
:10139000060308BF4729CDE938128DF8173027D04A
:1013A000009A0DF11701012306A800F0A9FA802484
:1013B0000DF117010123472206A88DF8174000F010
:1013C0009FFA039E00233146482206A800240025E8
:1013D000CDE9384500F014FC06A800F011FE3146B6
:1013E00006A84023002200F00BFC3BB0BDE8F08FC4
:1013F0008624012347220DF1170106A88DF8174016
:1014000000F07EFADDE734460022B1E708B500219E
:10141000C8220EF007FF002103460020C3E9320175
:1014200008BD00BF2DE9F84F1646D0E9322300274A
:1014300012EB060B43EB070CBCF1000F08BFBBF12E
:10144000480F04468A4630D3C2F14803514620462D
:1014500000F056FAD4F8C83000210022C4E9321254
:101460002046A3F14802C3F1480316449A4400F011
:10147000C7FDD4E93223002712EB060843EB070926
:10148000B9F1000F08BFB8F1480F3546DCD233463A
:101490005146204600F034FAD4E932325D1942EB6D
:1014A0000707C4E93257BDE8F88F3546EFE700BFBC
:1014B000F0B5D1E9322395B0002B0C4608BF472A7E
:1014C0004FF0060105468DF807102BD00DF10701EE
:1014D0000123204600F014FA80260DF107010123B4
:1014E000472220468DF8076000F00AFA0022002308
:1014F000C4E93223204600F083FD204602A9482398
:10150000002200F07DFB02AE12AF34460FCCBC428D
:1015100028606960AA60EB60264605F11005F4D1E9
:1015200015B0F0BD8626012347220DF107012046A4
:101530008DF8076000F0E4F9D8E700BFD0220EF084
:10154000D7BD00BF704700BFF0B50F4683B015464A
:101550000021C82204461E460EF064FE0C49ADF878
:101560000670204608230022009141F201076946D7
:10157000ADF8047000F0C4F9204600F041FD324699
:10158000294620460423FFF709F803B0F0BD00BF49
:101590000188010081B170B5054616460C463046FB
:1015A00000F02EFD88232946002230461D4400F01D
:1015B00027FB013CF3D170BD704700BF2DE9F04F10
:1015C000BFB0CDE9040100218B4614460AA8C82209
:1015D0001E46489D544F0EF025FE08235A4608A982
:1015E0000AA8ADF8264041F201040897CDE93CBBBA
:1015F000ADF8244000F084F90AA800F001FDDDE90F
:101600003C23511943EB0B0302910393DDE90201E3
:10161000002908BF88285F46C0F083805C463146B9
:10162000C2F188030AA800F06BF93C9B3D97A3F137
:1016300088020AA8C3F1880315443C941E4400F0B4
:10164000DFFCDDE93C20002112EB050840EB01093D
:10165000B9F1000F08BFB8F1880FE0D22C460F4651
:101660002B4631460AA800F04BF9DDE93C32E3187D
:10167000009347EB02030193DDE90012002A4FF0CB
:10168000040308BF8729CDE93C128DF81F303DD0F7
:10169000009A0DF11F0101230AA800F031F98024FE
:1016A0000DF11F01012387220AA88DF81F4000F0C9
:1016B00027F9049E00252B46882231460AA8CDE949
:1016C0003C5500F09DFA059B2F46ABB11C463346B6
:1016D00023441E46A8460AA800F092FC351B872C1E
:1016E0004FF088034FF0000229460AA807D8234686
:1016F0000AA8002200F084FA3FB0BDE8F08F00F0A5
:101700007FFA883CCDE93C78E5D1F5E784240123D4
:1017100087220DF11F010AA88DF81F4000F0F0F894
:10172000C7E72C469CE700BF0188010000000000CD
:1017300000000000000000000000000000000000A9
:101740000000000000000000000000000000000099
:101750000000000000000000000000000000000089
:101760000000000000000000000000000000000079
:101770000000000000000000000000000000000069
:101780000000000000000000000000000000000059
:101790000000000000000000000000000000000049
:1017A0000000000000000000000000000000000039
:1017B0000000000000000000000000000000000029
:1017C0000000000000000000000000000000000019
:1017D0000000000000000000000000000000000009
:1017E00000000000000000000000000000000000F9
:1017F00000000000000000000000000000000000E9
:10180000704700BFAFF30080AFF30080AFF30080FC
:10181000AFF30080AFF30080AFF30080AFF3008040
:10182000AFF30080AFF30080AFF30080AFF3008030
:10183000AFF30080AFF30080AFF30080AFF3008020
:101840000000000000000000000000000000000098
:101850000000000000000000000000000000000088
:101860000000000000000000000000000000000078
:101870000000000000000000000000000000000068
:101880000000000000000000000000000000000058
:101890000000000000000000000000000000000048
:1018A0000000000000000000000000000000000038
:1018B0000000000000000000000000000000000028
:1018C0000000000000000000000000000000000018
:1018D0000000000000000000000000000000000008
:1018E00000000000000000000000000000000000F8
:1018F00000000000000000000000000000000000E8
:1019000003B32DE9F04122F00704001912F0070299
:101910000BD01C00C2F10805AC4200DD2C00A3EB8B
:101920000408230000F0ECF84346DA0804D0984697
:1019300000F066F808F0070313B1002200F0E0F8A9
:10194000BDE8F081704700BFAFF30080AFF30080C7
:10195000AFF30080AFF30080AFF30080AFF30080FF
:10196000AFF30080AFF30080AFF30080AFF30080EF
:10197000AFF30080AFF30080AFF30080AFF30080DF
:101980000000000000000000000000000000000057
:101990000000000000000000000000000000000047
:1019A0000000000000000000000000000000000037
:1019B0000000000000000000000000000000000027
:1019C0000000000000000000000000000000000017
:1019D0000000000000000000000000000000000007
:1019E00000000000000000000000000000000000F7
:1019F00000000000000000000000000000000000E7
:101A000051F8044B51F8045BD0E9006704F05533FA
:101A100043EA530303F0333343EA930303F00F33F2
:101A200043EA131303F0FF1363F30F2386EA13262D
:101A300005F0553343EA530303F0333343EA93038A
:101A400003F00F3343EA131303F0FF1343EA1323A6
:101A500086EA034604F0AA3343EA430303F0CC3397
:101A600043EA830303F0F03343EA031303F0FF2355
:101A700043EA032387EA134705F0AA3343EA430303
:101A800003F0CC3343EA830303F0F03343EA031358
:101A900003F0FF2343EA03236FF30F035F40E0E803
:101AA0000267013AACD17047AFF30080AFF300801A
:101AB000AFF30080AFF30080AFF30080AFF300809E
:101AC0000000000000000000000000000000000016
:101AD0000000000000000000000000000000000006
:101AE00000000000000000000000000000000000F6
:101AF00000000000000000000000000000000000E6
:101B00000024002530B46A4411F8015B02F8015B3F
:101B1000013BF9D130BCD0E9006704F0553343EA0A
:101B2000530303F0333343EA930303F00F3343EAE1
:101B3000131303F0FF1363F30F2386EA132605F054
:101B4000553343EA530303F0333343EA930303F07B
:101B50000F3343EA131303F0FF1343EA132386EA18
:101B6000034604F0AA3343EA430303F0CC3343EAC9
:101B7000830303F0F03343EA031303F0FF2343EA44
:101B8000032387EA134705F0AA3343EA430303F02C
:101B9000CC3343EA830303F0F03343EA031303F047
:101BA000FF2343EA03236FF30F035F40E0E802677C
:101BB000704700BFAFF30080AFF30080AFF3008049
:101BC0000000000000000000000000000000000015
:101BD0000000000000000000000000000000000005
:101BE00000000000000000000000000000000000F5
:101BF00000000000000000000000000000000000E5
:101C000003B32DE9F04122F00704001912F0070296
:101C10000BD01C00C2F10805AC4200DD2C00A3EB88
:101C20000408230000F0ECF84346DA0804D0984694
:101C300000F066F808F0070313B1002200F0E0F8A6
:101C4000BDE8F081704700BFAFF30080AFF30080C4
:101C5000AFF30080AFF30080AFF30080AFF30080FC
:101C6000AFF30080AFF30080AFF30080AFF30080EC
:101C7000AFF30080AFF30080AFF30080AFF30080DC
:101C80000000000000000000000000000000000054
:101C90000000000000000000000000000000000044
:101CA0000000000000000000000000000000000034
:101CB0000000000000000000000000000000000024
:101CC0000000000000000000000000000000000014
:101CD0000000000000000000000000000000000004
:101CE00000000000000000000000000000000000F4
:101CF00000000000000000000000000000000000E4
:101D0000F0E80245230065F31F446FF30F0545EA31
:101D1000134584EA142303F47F435C4084EA0324DC
:101D200084EA141303F0F0135C4084EA031484EA99
:101D3000940303F00C335C4084EA830484EA540384
:101D400003F022335C4084EA430485EA152303F45C
:101D50007F435D4085EA032585EA151303F0F01300
:101D60005D4085EA031585EA950303F00C335D4079
:101D700085EA830585EA550303F022335D4085EA51
:101D8000430541F8044B013A41F8045BB8D1704770
:101D9000AFF30080AFF30080AFF30080AFF30080BB
:101DA000AFF30080AFF30080AFF30080AFF30080AB
:101DB000AFF30080AFF30080AFF30080AFF300809B
:101DC0000000000000000000000000000000000013
:101DD0000000000000000000000000000000000003
:101DE00000000000000000000000000000000000F3
:101DF00000000000000000000000000000000000E3
:101E0000F0E80245260065F31F446FF30F0545EA2D
:101E1000164584EA142606F47F46744084EA0624B4
:101E200084EA141606F0F016744084EA061484EA74
:101E3000940606F00C36744084EA860484EA54065C
:101E400006F02236744084EA460485EA152606F434
:101E50007F46754085EA062585EA151606F0F016D8
:101E6000754085EA061585EA950606F00C3675403C
:101E700085EA860585EA550606F02236754085EA2C
:101E8000460530B46A4412F8014B013B01F8014B9E
:101E9000F9D102B0704700BFAFF30080AFF300800C
:101EA000AFF30080AFF30080AFF30080AFF30080AA
:101EB000AFF30080AFF30080AFF30080AFF300809A
:101EC0000000000000000000000000000000000012
:101ED0000000000000000000000000000000000002
:101EE00000000000000000000000000000000000F2
:101EF00000000000000000000000000000000000E2
:101F00000100000000000000000000008900000047
:101F1000000000008B000080000000008080008036
:101F2000010000008B0000000100000000800000A4
:101F30000100000088800080010000008200008015
:101F4000000000000B000000000000000A0000007C
:101F500001000000828000000000000003800000FB
:101F6000010000008B800000010000000B000080D9
:101F7000010000008A000080010000008100008054
:101F800000000000810000800000000008000080C8
:101F900000000000830000000000000003800080BB
:101FA00001000000888000800000000088000080A0
:101FB000010000000080000000000000828000801E
:101FC000FF000000AFF30080AFF30080AFF30080AC
:101FD000AFF30080AFF30080AFF30080AFF3008079
:101FE000AFF30080AFF30080AFF30080AFF3008069
:101FF000AFF30080AFF30080AFF30080AFF3008059
:10200000AFF204112DE9F05F86B00591036A816C8F
:102010004B40016F4B40D0F898104B40D0F8C010A7
:102020004B40C768416B4F40C16D4F40D0F88410A2
:102030004F40D0F8AC104F4083EAF7760096466ADE
:10204000C16C4E40416F4E40D0F89C104E40D0F8CD
:10205000C4104E40D0F808E0016B9EEA010E816D7D
:102060009EEA010ED0F880109EEA010ED0F8A8106A
:102070009EEA010E96EA0E08CDF804800569816B90
:102080004D40016E4D40D0F888104D40D0F8B01052
:102090004D4085EAF679CDF808904469C16B4C4013
:1020A000416E4C40D0F88C104C40D0F8B4104C40ED
:1020B000634003930368816A4B40016D4B40816F1D
:1020C0004B40D0F8A0104B4083EAF47A4668C16ACE
:1020D0004E40416D4E40C16F4E40D0F8A4104E406E
:1020E00096EA050BC469416C4C40C16E4C40D0F877
:1020F00094104C40D0F8BC104C408EEAF475049516
:102100008569016C4D40816E4D40D0F890104D4076
:10211000D0F8B8104D4097EA050285EAF67C94EABB
:10212000030E456DD0F88460D0F8B4708369846C78
:1021300095EA0805574096EA0B0693EA090394EAE4
:102140000C045FEAB5755FEA76265FEA77075FEA17
:10215000B3435FEAB45425EA04015940416526EAD5
:1021600005016140C0F8841027EA06016940C0F803
:10217000B41023EA07017140816124EA0301794028
:102180008164D0F8A4708368C46B856ED0F89C60BD
:1021900097EA0807544093EA0A0395EA090596EA84
:1021A0000E065FEAF7575FEA74745FEA35555FEA37
:1021B000367625EA04015940C0F8A41026EA050144
:1021C0006140816027EA06016940C16323EA070193
:1021D0007140816624EA03017940C0F89C10DDF863
:1021E0000080846A856DD0F88C60D0F8B870436A3E
:1021F00094EA0804564095EA0A0597EA090793EA23
:102200000E035FEAB4345FEAF5655FEA36665FEABB
:1022100037175FEAB34325EA04015940816226EA91
:1022200005016140816527EA06016940C0F88C100C
:1022300023EA07017140C0F8B81024EA030179408D
:102240004162866FD0F8AC704369046C056F96EA02
:102250000806534097EA0B0794EA090495EA0C052F
:102260005FEA36365FEAF7775FEA73035FEA741472
:102270005FEA753525EA04015940816726EA0501C0
:102280006140C0F8AC1027EA06016940416123EAC9
:1022900007017140016424EA030179400167DDF818
:1022A0000C900368046B456ED0F89460D0F8C07051
:1022B00093EA0803554094EA0A0496EA090697EA65
:1022C0000C075FEAB4245FEAB5255FEA76565FEA59
:1022D000776726EA05016140016327EA0601694044
:1022E000416623EA07017140C0F8941024EA030113
:1022F0007940C0F8C0100599A5430C686B40634055
:102300000360049A056DD0F88060D0F8B070C3699E
:10231000C46C95EA0805574096EA0A0693EA090351
:1023200094EA0E045FEAF5755FEAB6265FEAB7073E
:102330005FEAB3435FEAB45425EA040159400165FA
:1023400026EA05016140C0F8801027EA06016940CD
:10235000C0F8B01023EA07017140C16124EA03010B
:102360007940C164D0F8A070C368846BC56ED0F8A2
:10237000986097EA0807544093EA0B0395EA090529
:1023800096EA0C065FEAF7575FEAF3735FEA747444
:102390005FEAF5455FEA367625EA04015940C0F860
:1023A000A01026EA05016140C16027EA06016940E4
:1023B000816323EA07017140C16624EA0301794081
:1023C000C0F89810DDF80480C46AC56DD0F8886044
:1023D000D0F8BC70036A94EA0804564095EA0B05ED
:1023E00097EA090793EA0C035FEAB4345FEAF565FC
:1023F0005FEA76665FEA37175FEAF34325EA04018E
:102400005940C16226EA05016140C16527EA06011B
:102410006940C0F8881023EA07017140C0F8BC1079
:1024200024EA030179400162C66FD0F8A8700369FD
:10243000446C456F96EA0806534097EA0A0794EA07
:10244000090495EA0E055FEAF6265FEAF7775FEA88
:1024500073035FEA34145FEA353525EA0401594015
:10246000C16726EA05016140C0F8A81027EA060105
:102470006940016123EA07017140416424EA0301D4
:1024800079404167DDF808904368446B056ED0F8E9
:102490009060D0F8C47093EA0803554094EA0B04A6
:1024A00096EA090697EA0E075FEAB4245FEAF52583
:1024B0005FEAB6565FEA776726EA05016140416345
:1024C00027EA06016940016623EA07017140C0F866
:1024D000901024EA03017940C0F8C4100599A5437F
:1024E0004C686B4063404360D0F8C030816C4B4017
:1024F000D0F898104B40416A4B40416F4B40476BBE
:10250000D0F880104F4081684F40C16D4F40D0F8E7
:10251000AC104F4083EAF7760096D0F8C460C16CE7
:102520004E40D0F89C104E40016A4E40016F4E4024
:10253000D0F830E0D0F884109EEA010EC1689EEA1F
:10254000010E816D9EEA010ED0F8A8109EEA010EE0
:1025500096EA0E08CDF80480456ED0F8B4104D40D0
:10256000816B4D40D0F88C104D4001694D4085EA9B
:10257000F679CDF80890046ED0F8B0104C40C16BDD
:102580004C40D0F888104C4041694C406340039364
:102590000368416D4B40D0F8A0104B40816A4B401E
:1025A000C16F4B4083EAF47A4668016D4E40D0F823
:1025B000A4104E40C16A4E40816F4E4096EA050B12
:1025C000D0F89040C1694C40816E4C40D0F8BC10AE
:1025D0004C40016C4C408EEAF4750495D0F8945050
:1025E00081694D40C16E4D40D0F8B8104D40416CEE
:1025F0004D4097EA050285EAF67C94EA030ED0F88E
:10260000A450C66D4769D0F89430846C95EA0805EB
:10261000574096EA0B0693EA090394EA0C045FEA32
:10262000B5755FEA76265FEA77075FEAB3435FEA4C
:10263000B45425EA04015940C0F8A41026EA050163
:102640006140C16527EA06016940416123EA07014B
:102650007140C0F8941024EA030179408164876FC7
:10266000036BD0F8B040C56E066A97EA080754407D
:1026700093EA0A0395EA090596EA0E065FEAF75718
:102680005FEA74745FEA35555FEA367625EA04013D
:102690005940816726EA05016140016327EA060186
:1026A0006940C0F8B01023EA07017140C16624EA0E
:1026B000030179400162DDF80080446DC568D0F8FF
:1026C0008860476CD0F8C43094EA0804564095EA14
:1026D0000A0597EA090793EA0E035FEAB4345FEA52
:1026E000F5655FEA36665FEA37175FEAB34325EAC6
:1026F00004015940416526EA05016140C16027EAAD
:1027000006016940C0F8881023EA0701714041645E
:1027100024EA03017940C0F8C410866AD0F8AC708E
:10272000036E8469D0F8985096EA0806534097EAF9
:102730000B0794EA090495EA0C055FEA36365FEA6E
:10274000F7775FEA73035FEA74145FEA753525EA89
:1027500004015940816226EA05016140C0F8AC10CD
:1027600027EA06016940016623EA07017140816199
:1027700024EA03017940C0F89810DDF80C90036852
:10278000D0F88440C56BD0F8BC60476F93EA08036B
:10279000554094EA0A0496EA090697EA0C075FEAAC
:1027A000B4245FEAB5255FEA76565FEA776726EAE2
:1027B00005016140C0F8841027EA06016940C16341
:1027C00023EA07017140C0F8BC1024EA03017940F4
:1027D00041670599A5438C686B4063400360049A88
:1027E000D0F8A050866D0769D0F89030C46C95EA97
:1027F0000805574096EA0A0693EA090394EA0E048C
:102800005FEAF5755FEAB6265FEAB7075FEAB343AA
:102810005FEAB45425EA04015940C0F8A01026EA42
:1028200005016140816527EA06016940016123EAEB
:1028300007017140C0F8901024EA03017940C16497
:10284000C76F436BD0F8B440856E466A97EA0807B5
:10285000544093EA0B0395EA090596EA0C065FEAF1
:10286000F7575FEAF3735FEA74745FEAF5455FEA6E
:10287000367625EA04015940C16726EA0501614020
:10288000416327EA06016940C0F8B41023EA070152
:102890007140816624EA030179404162DDF80480D9
:1028A000046D8568D0F88C60076CD0F8C03094EA6D
:1028B0000804564095EA0B0597EA090793EA0C03CA
:1028C0005FEAB4345FEAF5655FEA76665FEA371778
:1028D0005FEAF34325EA04015940016526EA050150
:1028E0006140816027EA06016940C0F88C1023EA44
:1028F00007017140016424EA03017940C0F8C01067
:10290000C66AD0F8A870436EC469D0F89C5096EAA5
:102910000806534097EA0A0794EA090495EA0E0567
:102920005FEAF6265FEAF7775FEA73035FEA34143B
:102930005FEA353525EA04015940C16226EA0501FE
:102940006140C0F8A81027EA06016940416623EA01
:1029500007017140C16124EA03017940C0F89C106D
:10296000DDF808904368D0F88040856BD0F8B860F7
:10297000076F93EA0803554094EA0B0496EA0906A8
:1029800097EA0E075FEAB4245FEAF5255FEAB656D8
:102990005FEA776726EA05016140C0F8801027EA00
:1029A00006016940816323EA07017140C0F8B8104D
:1029B00024EA0301794001670599A543CC686B407F
:1029C00063404360436F816C4B40416A4B40D0F899
:1029D000C4104B40D0F89C104B40D0F88070816DF3
:1029E0004F40016B4F4081684F40D0F8AC104F40D2
:1029F00083EAF7760096066FC16C4E40016A4E403E
:102A0000D0F8C0104E40D0F898104E40D0F884E076
:102A1000C16D9EEA010E416B9EEA010EC1689EEAFD
:102A2000010ED0F8A8109EEA010E96EA0E08CDF825
:102A30000480C56B41694D40D0F8B4104D40D0F8CA
:102A400088104D40416E4D4085EAF679CDF80890EA
:102A5000846B01694C40D0F8B0104C40D0F88C1019
:102A60004C40016E4C40634003930368D0F8A410BF
:102A70004B40C16F4B40416D4B40C16A4B4083EAB4
:102A8000F47A4668D0F8A0104E40816F4E40016D38
:102A90004E40816A4E4096EA050BD0F8B840D0F817
:102AA00090104C40C16E4C40016C4C4081694C40D0
:102AB0008EEAF4750495D0F8BC50D0F894104D40CF
:102AC000816E4D40416C4D40C1694D4097EA050211
:102AD00085EAF67C94EA030E856F8668076ED0F867
:102AE000BC30846C95EA0805574096EA0B0693EAD9
:102AF000090394EA0C045FEAB5755FEA76265FEA9B
:102B000077075FEAB3435FEAB45425EA040159400A
:102B1000816726EA05016140816027EA0601694074
:102B2000016623EA07017140C0F8BC1024EA0301E2
:102B300079408164876AD0F884300469856ED0F862
:102B4000C06097EA0807544093EA0A0395EA09052A
:102B500096EA0E065FEAF7575FEA74745FEA355546
:102B60005FEA367625EA04015940816226EA0501CA
:102B70006140C0F8841027EA06016940016123EA38
:102B800007017140816624EA03017940C0F8C01052
:102B9000DDF80080D0F8A440456BD0F88C60C769A0
:102BA000036F94EA0804564095EA0A0597EA090774
:102BB00093EA0E035FEAB4345FEAF5655FEA3666CE
:102BC0005FEA37175FEAB34325EA04015940C0F8CA
:102BD000A41026EA05016140416327EA0601694025
:102BE000C0F88C1023EA07017140C16124EA030197
:102BF00079400167466DD0F8AC70836BD0F8944093
:102C0000456A96EA0806534097EA0B0794EA0904D6
:102C100095EA0C055FEA36365FEAF7775FEA7303F9
:102C20005FEA74145FEA753525EA0401594041658D
:102C300026EA05016140C0F8AC1027EA06016940A8
:102C4000816323EA07017140C0F8941024EA03016C
:102C500079404162DDF80C900368C46DD0F8B05043
:102C6000066CD0F89C7093EA0803554094EA0A0475
:102C700096EA090697EA0C075FEAB4245FEAB525ED
:102C80005FEA76565FEA776726EA05016140C1652B
:102C900027EA06016940C0F8B01023EA0701714035
:102CA000016424EA03017940C0F89C100599A5430A
:102CB0000C696B4063400360049AC56FC668476E39
:102CC000D0F8B830C46C95EA0805574096EA0A0671
:102CD00093EA090394EA0E045FEAF5755FEAB62603
:102CE0005FEAB7075FEAB3435FEAB45425EA040139
:102CF0005940C16726EA05016140C16027EA060123
:102D00006940416623EA07017140C0F8B81024EA1F
:102D100003017940C164C76AD0F880304469C56E48
:102D2000D0F8C46097EA0807544093EA0B0395EA89
:102D3000090596EA0C065FEAF7575FEAF3735FEA64
:102D400074745FEAF5455FEA367625EA0401594076
:102D5000C16226EA05016140C0F8801027EA060139
:102D60006940416123EA07017140C16624EA030119
:102D70007940C0F8C410DDF80480D0F8A040056B9D
:102D8000D0F888608769436F94EA0804564095EA52
:102D90000B0597EA090793EA0C035FEAB4345FEA8C
:102DA000F5655FEA76665FEA37175FEAF34325EA7F
:102DB00004015940C0F8A01026EA050161400163F2
:102DC00027EA06016940C0F8881023EA070171402C
:102DD000816124EA030179404167066DD0F8A8704B
:102DE000C36BD0F89040056A96EA0806534097EA0C
:102DF0000A0794EA090495EA0E055FEAF6265FEAF7
:102E0000F7775FEA73035FEA34145FEA353525EA42
:102E100004015940016526EA05016140C0F8A81087
:102E200027EA06016940C16323EA07017140C0F83F
:102E3000901024EA030179400162DDF808904368AC
:102E4000846DD0F8B450466CD0F8987093EA0803BB
:102E5000554094EA0B0496EA090697EA0E075FEAE2
:102E6000B4245FEAF5255FEAB6565FEA776726EA9B
:102E700005016140816527EA06016940C0F8B41088
:102E800023EA07017140416424EA03017940C0F854
:102E900098100599A5434C696B4063404360D0F896
:102EA0009C30816C4B40D0F8C4104B40016F4B40BC
:102EB000016A4B40876DC1684F40D0F884104F4085
:102EC000016B4F40D0F8AC104F4083EAF776009684
:102ED000D0F89860C16C4E40D0F8C0104E40416FA1
:102EE0004E40416A4E40D0F85CE081689EEA010E97
:102EF000D0F880109EEA010E416B9EEA010ED0F8D8
:102F0000A8109EEA010E96EA0E08CDF80480D0F8CB
:102F1000B050016E4D4041694D40D0F88C104D408D
:102F2000C16B4D4085EAF679CDF80890D0F8B440F1
:102F3000416E4C4001694C40D0F888104C40816B88
:102F40004C40634003930368816F4B40C16A4B4020
:102F5000D0F8A4104B40016D4B4083EAF47A4668E8
:102F6000C16F4E40816A4E40D0F8A0104E40416D76
:102F70004E4096EA050B446CD0F8B8104C40816E78
:102F80004C4081694C40D0F894104C408EEAF47566
:102F90000495056CD0F8BC104D40C16E4D40C16920
:102FA0004D40D0F890104D4097EA050285EAF67C36
:102FB00094EA030E856A066B876B036C846C95EA52
:102FC0000805574096EA0B0693EA090394EA0C04B5
:102FD0005FEAB5755FEA76265FEA77075FEAB34393
:102FE0005FEAB45425EA04015940816226EA0501EA
:102FF0006140016327EA06016940816323EA070112
:103000007140016424EA030179408164476DC36D16
:10301000446EC56E466F97EA0807544093EA0A0368
:1030200095EA090596EA0E065FEAF7575FEA7474B7
:103030005FEA35555FEA367625EA04015940416575
:1030400026EA05016140C16527EA0601694041663B
:1030500023EA07017140C16624EA03017940416710
:10306000DDF80080846FD0F88050D0F88860D0F808
:103070009070D0F8983094EA0804564095EA0A0512
:1030800097EA090793EA0E035FEAB4345FEAF5654D
:103090005FEA36665FEA37175FEAB34325EA040161
:1030A0005940816726EA05016140C0F8801027EA8F
:1030B00006016940C0F8881023EA07017140C0F892
:1030C000901024EA03017940C0F89810D0F8A46069
:1030D000D0F8AC70D0F8B430D0F8BC40D0F8C450C0
:1030E00096EA0806534097EA0B0794EA090495EA22
:1030F0000C055FEA36365FEAF7775FEA73035FEA4B
:1031000074145FEA753525EA04015940C0F8A4102B
:1031100026EA05016140C0F8AC1027EA06016940C3
:10312000C0F8B41023EA07017140C0F8BC1024EACB
:1031300003017940C0F8C410DDF80C90036884687E
:1031400005698669076A93EA0803554094EA0A0408
:1031500096EA090697EA0C075FEAB4245FEAB52508
:103160005FEA76565FEA776726EA0501614081608B
:1031700027EA06016940016123EA07017140816184
:1031800024EA0301794001620599A5438C696B40EB
:1031900063400360049AC56A466BC76B436CC46C9A
:1031A00095EA0805574096EA0A0693EA090394EA65
:1031B0000E045FEAF5755FEAB6265FEAB7075FEAD5
:1031C000B3435FEAB45425EA04015940C16226EAD8
:1031D00005016140416327EA06016940C16323EAB2
:1031E00007017140416424EA03017940C164076D1D
:1031F000836D046E856E066F97EA0807544093EA64
:103200000B0395EA090596EA0C065FEAF7575FEAB1
:10321000F3735FEA74745FEAF5455FEA367625EA90
:1032200004015940016526EA05016140816527EAEC
:1032300006016940016623EA07017140816624EABC
:10324000030179400167DDF80480C46FD0F8845031
:10325000D0F88C60D0F89470D0F89C3094EA0804D0
:10326000564095EA0B0597EA090793EA0C035FEAD3
:10327000B4345FEAF5655FEA76665FEA37175FEABE
:10328000F34325EA04015940C16726EA050161407C
:10329000C0F8841027EA06016940C0F88C1023EAC0
:1032A00007017140C0F8941024EA03017940C0F886
:1032B0009C10D0F8A060D0F8A870D0F8B030D0F84A
:1032C000B840D0F8C05096EA0806534097EA0A077B
:1032D00094EA090495EA0E055FEAF6265FEAF777B5
:1032E0005FEA73035FEA34145FEA353525EA0401C7
:1032F0005940C0F8A01026EA05016140C0F8A810A6
:1033000027EA06016940C0F8B01023EA07017140BE
:10331000C0F8B81024EA03017940C0F8C010DDF805
:1033200008904368C4684569C669476A93EA080318
:10333000554094EA0B0496EA090697EA0E075FEAFD
:10334000B4245FEAF5255FEAB6565FEA776726EAB6
:1033500005016140C16027EA06016940416123EA35
:1033600007017140C16124EA030179404162059976
:10337000A543CC696B40634051F8204F0591FF2C69
:1033800043607EF443AE06B0BDE8F09F2DE9F04106
:10339000042982B00E46804644D94F1FBF0800F171
:1033A000080505EB8705041D14F0C4FCC0F30721D4
:1033B000C0F30742C0F3076304F8040C04F8031CCD
:1033C00004F8022C04F8013C0434AC42ECD1C7EB05
:1033D0008773043E013706EB830608EB870814F079
:1033E000A9FC731E02AA1A44019012F8042C88F852
:1033F00000209BB1B31E02AA1A4412F8042C88F8CC
:1034000001205BB1033E02AB334413F8043C88F85F
:1034100002301EB19DF8043088F80330002002B05D
:10342000BDE8F0810029DAD1002002B0BDE8F081CA
:1034300070B50C1E054606DD421E002302F8013F52
:1034400001339C42FAD1013C0CF074FC002C10DDDD
:103450002C44C5F101060CF03DFF331990FBF3F24B
:1034600002FB130022782B5C2A5404F80139AC4289
:10347000F1D170BD2DE9F04FC7B016460C46054698
:1034800001F0DCF800F007074FEAD00E1FFA8EF3C8
:10349000791C03EBD101BA1CADF82210F91C03EB27
:1034A000D20203EBD101ADF82420ADF826103A1D6D
:1034B000791D03EBD20203EBD101ADF82820ADF862
:1034C0002A10BA1DF91D03EBD202ADF82030002EF0
:1034D00003EBD103ADF82C20ADF82E3040F3838000
:1034E00000234FEA460A0AEB06081A46194607FA6D
:1034F00003FC03330EFA03F0434541EA0C01024496
:10350000F5D18F18CDE906120DF1180EBEE80F00A7
:10351000EC46ACE80F009EE803008CE803000DF1D8
:1035200017084246002302F8013F0133B3F5807FBC
:10353000F9D10CF0FFFB06AB0DF21719C3F1010B2B
:1035400000E099460CF0C6FE0BEB090390FBF3F28A
:1035500002FB130006AA4B460DF1180C125C99F8F9
:1035600000100CF8001003F801299C45E9D10CF07B
:10357000E9FB09F1FE09B24418F8010F05EB400E12
:1035800035F81030BEF80022DB1B22402340DEB1AC
:103590000021A44602F0070B5B440CEA030303F08E
:1035A000070C0DF58C7B0BEB4C0CACF5887C0331D8
:1035B000BCF800B08A4524FA01FC0BEBD3034FEAB8
:1035C000D2020CEA0303E5D1C84525F81030AEF865
:1035D0000022D1D106A94FF4807206480CF088FD74
:1035E00047B0BDE8F08F00273A4639464FEA460A11
:1035F00088E700BF401B00202DE9F04101F58075F0
:1036000051F8042B5408930803F0113304F01134DB
:103610001C4402F01136D30803F01133A2191344ED
:1036200003F00F07C3F30318C3F30326C3F3033EEA
:10363000C3F30344C3F3035CC3F30362A7EB0807BC
:10364000A6EB0E06A4EB0C04A2EB1373A9420780B1
:1036500046808480C38000F10800D1D1BDE8F081AC
:10366000F0B4D1E90243D1E9006200F140059F00C6
:103670004FEA440CDB00A4000CF0040C04F004043A
:1036800007F0080703F0080347EA0C07234306F096
:10369000010C02F00204520002F00202C6F34006DE
:1036A0003C4343EA0C033443134343EA044340F8E6
:1036B000043BD1E90062D1E90243B6089208A408AC
:1036C0009B088542C1E90062C1E90243CFD1F0BC49
:1036D000704700BF2DE9F04F83B0A3F104090C9EA1
:1036E000043ECDE90001531E34461F32484613F80C
:1036F000011F01F00F0140F8041F19789A424FEAA8
:10370000111144F8041FF2D100252F462B46AC4678
:10371000AE46A846AA46AB462A4659F8040F56F8C4
:10372000041F00F0010494404BEA040BC0F3400472
:1037300094404AEA040AC0F380049440C0F3C000F5
:1037400048EA040801F00104904094404EEA000E5B
:103750004CEA040CC1F34000C1F38004C1F3C00182
:103760009040944091400132202A43EA000347EA06
:10377000040745EA0105D0D1009AC2E900BAC2F8AF
:103780000880C2F80CE0019AC2E900C39760D560D6
:1037900003B0BDE8F08F00BF2DE9F04FE1B000F5B8
:1037A0001073059300F50463069107930DF1700AF9
:1037B000059BA3F50077069B0393039C40AB009306
:1037C000224620AB10A908A8FFF784FF20AB009386
:1037D00004F5407240AB14A90CA8FFF77BFF002250
:1037E0000C9BDDF820B01C93CDE9192209ABCDE983
:1037F0001D220293012304971B921F9298465F4655
:10380000029BDDF8709053F8044B0293DD6808F1D9
:10381000010889EA050184EA07031C9118934FEA1D
:10382000580B1DAE00F00AFF05EA070204EA09037F
:1038300005EA09053C4056F8107C56F8049B5340B5
:10384000434056F8042C5D4044406A4084EA070334
:10385000BBF1010F46F8042C46F8143C02D04FF09F
:10386000010BDFE7B8F1040F189FC9D1049F0DF1D8
:103870004008B94658F8046BD8F80C400DF1600BBD
:10388000DBF8007087EA06034BF8043BDBF80C50CA
:1038900085EA0403CBF80C3000F0D0FEED4307EAD4
:1038A000040305EA06024340254053403E40DA4502
:1038B00083EA050486EA0006E2D114AB4345D9D178
:1038C000DDE91A31DDE91E025940A9F14005424007
:1038D000DB431B91284618A91A931F92FFF7C0FEDD
:1038E000514609F5B8604F46FFF7BAFED5F80046D5
:1038F000D5F8008000F0A2FE88EA000684EA060CF3
:10390000A8EB0003020C6040C2EB1848ACEB0401CA
:10391000020C9BB2240C43EA084389B2C4EB1C445A
:1039200012040438734041EA0444A2F5802280B2B4
:10393000634010432B60C5F800060435BD42D5D165
:10394000039B20330393059B05F14007BB427FF4A3
:1039500034AF069A02F580720692079A05F5107345
:103960009A4205937FF424AF61B0BDE8F08F00BFA9
:10397000002A42D0F0B40B1D041DA14238BF98426A
:103980002ED302F1FF3CBCF1040F29D922F003072A
:103990000F440D46044655F8043B2668BD4283EAB1
:1039A000060344F8043BF6D122F003039A42ACEB41
:1039B000030400EB030501EB03060FD0C95CC25CF6
:1039C0004A40C25454B173786A78012C83EA0203E6
:1039D0006B7003D0B378AA785340AB70F0BC7047DB
:1039E000024410F8014B11F8013B904283EA0403B2
:1039F00000F8013CF5D1F0BC704770472DE9F04F5D
:103A00004368C66A876A0268DFF8B4C3D0E9145411
:103A100073407A406340846F6A406240C46F634081
:103A2000D0F8A0406240D0F8A4406340C1E9002330
:103A3000066B8268846D456BC368D0F8A8707240CD
:103A40005440C26D6B405340D0F880205440D0F8B1
:103A500084205340D0F8AC2067405340C1E9027342
:103A6000066E846B0569C26B7440466E654044699E
:103A700072406240D0F888406540D0F88C40624087
:103A8000D0E92C6475406240C1E90452866E046C32
:103A90008569426C7440C66E6540C469724062407C
:103AA000D0F890406540D0F894406240D0E92E6450
:103AB00075406240C1E90652066F846C056AC26CAB
:103AC0007440466F6540446A72406240D0F8984046
:103AD0006540D0F89C406240D0E930647540624057
:103AE000C1E908524FEA470E4FEA4308D0E90064A3
:103AF0004EEAD37348EAD77783EA050E87EA0208CD
:103B000083B086EA0E0684EA0804C0E90064C36F45
:103B1000C76A0193836A846FD0F8A020D0E9146546
:103B200083EA0E0987EA0807C0E90A97019BD0F8E3
:103B3000A47086EA0E0685EA080584EA0E0482EA85
:103B40000E0283EA080387EA08074565C0F8A0204B
:103B500006658467C367C0F8A470D1E90446D1E95B
:103B600000734FEA440848EAD678760046EAD476ED
:103B70005E40C36D056B446B826D88EA070883EA7B
:103B80000609C768836887EA060B83EA080E85EA98
:103B90000805744082EA0802C0E90C54C0E91629FD
:103BA000C0E902EBD0F88050D0F8A840D0F88420CB
:103BB000D0F8AC30476985EA080584EA0804724009
:103BC0007340C0F88420C0F88050C0F8A840C0F806
:103BD000AC30D1E90656D1E902434FEA450848EA3C
:103BE000D678760088EA040846EAD576D0E90E420F
:103BF0005E400569036E87EA060985EA080584EADE
:103C00000804724083EA0803D0F888708463C0E92E
:103C10000459D0F8B040456EC2630366D0F88C20DA
:103C2000D0F8B43087EA080984EA08047240734087
:103C300075404566C0F88890C0F8B040C0F88C2048
:103C4000C0F8B430D1E90856D1E904434FEA450839
:103C500048EAD678760088EA040846EAD576D0E9BC
:103C600010425E40C7698569836E87EA060985EA66
:103C7000080584EA0804724083EA0803C0E906598B
:103C8000046442648366D0F89070C56ED0F8B84082
:103C9000D0F89420D0F8BC3087EA0809754084EA4F
:103CA000080472407340C0F89090C566C0F8B840F0
:103CB000C0F89420C0F8BC30D1E90053D1E9062403
:103CC0004FEA450949EAD37989EA02094FEA4308EC
:103CD000D0E9082348EAD57888EA040882EA09028C
:103CE00083EA0803C0E90823D0E91254D0E91C2371
:103CF00085EA090582EA090284EA080483EA0803DE
:103D0000D0F898600267C0E91254D0F8C020D0F80B
:103D10009C404367D0F8C43086EA090A82EA090267
:103D20005F4684EA080483EA08030CF1600B7646D8
:103D3000C0F898A0C0F8C020C0F89C40C0F8C430BB
:103D4000CDF804B08146019A5CF8040F52F8043FA4
:103D500001925C4204F03F04C4F1200207FA02F22F
:103D600026FA04F5A4F1200A27FA0AFA09EBC0089A
:103D7000A3F1200E154306FA0EFE07FA03F245EAF8
:103D80000A05D8E900AB42EA0E0206FA03FEC3F1C7
:103D9000200326FA03F3C1E900ABE7401A434EEAD9
:103DA0000505064B49F830503A43C8F804209C45B5
:103DB000D1E90067C7D103B0BDE8F08FCC7E010820
:103DC0006C7E01082DE9F041844615461C468E465E
:103DD00000F1C80867460FCF2E460FC60FCF0FC69B
:103DE00097E8030086E8030077460FCF26460FC604
:103DF0000FCF0FC697E8030086E80300D5E90362FA
:103E0000DCE90001AF686B6922EA070223EA0603D6
:103E100050405940CCE90001D4E90476AB681F401A
:103E2000EB681E4078407140CCE90001D4E90362A0
:103E3000DEE90001A768636922EA070223EA0603B4
:103E400050405940CEE90001D5E90476A3681F40EF
:103E5000E3681E4078407140CEE90001D5E9056273
:103E6000DCE902012F69EB6922EA070223EA060373
:103E700050405940CCE90201D4E906762B691F4035
:103E80006B691E4078407140CCE90201D4E90562BB
:103E9000DEE902012769E36922EA070223EA060351
:103EA00050405940CEE90201D5E9067623691F400A
:103EB00063691E4078407140CEE90201D5E906767B
:103EC000D5E90823DCE9040122EA070223EA060314
:103ED00050405940CCE90401D4E90876AB691F4051
:103EE000EB691E4078407140CCE90401D4E90762D7
:103EF000DEE90401A769636A22EA070223EA0603EE
:103F000050405940CEE90401D5E90876A3691F4025
:103F1000E3691E4078407140CEE904012F6A6E6A61
:103F20002A686B68DCE9060122EA070223EA060335
:103F300050405940CCE90601D4E900762B6A1F4075
:103F40006B6A1E4078407140CCE90601DEE906014B
:103F5000276A666A2268636822EA070223EA060380
:103F600050405940CEE90601D5E90076236A1F404A
:103F7000636A1E4078407140CEE90601D5E90162CE
:103F8000DCE908012F68EB6822EA070223EA06034E
:103F900050405940CCE90801D4E902762B681F4013
:103FA0006B681E4078407140CCE90801D4E9016299
:103FB000DEE908012768E36822EA070223EA06032C
:103FC00059405040CEE90801D5E9027623681F40E8
:103FD00063680CF1280C1E4078407140E045CEE942
:103FE00008010EF1280E7FF4F5AEBDE8F08100BFA8
:103FF000F0B5C5B004460E46C022104914A80CF016
:1040000077F812AD42AF69462046FFF7F7FC0AA9E0
:104010003046FFF7F3FC0AAB6A4631462046FFF70D
:10402000D1FE55F8080F22686368696842404B402A
:10403000BD42C4E90023E6D145B0F0BD307F0108A0
:10404000F8B12DE9F0414FF0A8081E461446551866
:1040500008FB002803F1C80739463046FFF7C8FFC0
:10406000A822314620460CF043F8A8342846A8225E
:1040700039460CF03DF8444505F1A805ECD1BDE802
:10408000F0817047F8B50C4601F1C806054648278F
:1040900031462046FFF7ACFF21463A4628460CF051
:1040A00027F83A463146E819BDE8F8400CF020B848
:1040B0000B1D984230B400F1040201D291420ED39C
:1040C00001F1480500E0043251F8043B04688D42D8
:1040D00083EA040303601046F5D130BC704700F159
:1040E000480410F8012B11F8013B844283EA0203D3
:1040F00000F8013CF5D130BC704700BF47292DE9DD
:10410000F0470F469246054602EB010900F1C8064A
:104110002DD90C4609EB0108A9EB04012846FFF74D
:10412000C7FFA8EB04013046FFF7C2FF483C314609
:104130002846FFF75DFF472CA7EB0401ECD88A4423
:1041400009EB0108514622462846FFF711FC2B5D7A
:1041500083F006032B5595F8473083F0800385F8EC
:104160004730414630462246BDE8F04700E4C846A5
:104170000C46E7E70B1D984230B400F1040201D26F
:1041800091420ED301F1A80500E0043251F8043B3E
:1041900004688D4283EA040303601046F5D130BC05
:1041A000704700F1A80410F8012B11F8013B84427C
:1041B00083EA020300F8013CF5D130BC704700BF30
:1041C000A7292DE9F0470F469246054602EB010963
:1041D00000F1C8062ED90C4609EB0108A9EB040131
:1041E0002846FFF7C7FFA8EB04013046FFF7C2FFE0
:1041F000A83C31462846FFF7FBFEA72CA7EB04019D
:10420000ECD88A4409EB0108514622462846FFF7BC
:10421000AFFB2B5D83F01F032B5595F8A73083F080
:10422000800385F8A730414630462246BDE8F04776
:10423000FFF79EBBC8460C46E6E700BF2DE9F041FC
:10424000ADF5387D054617460E464FF4C87200217D
:1042500054A898460BF0E6FF1648EC08A0FB04347F
:1042600039464246640854A8FFF7AAFF294620466B
:1042700054AB3246FFF7E4FEA82101FB04F42F1BE8
:1042800003D10DF5387DBDE8F08154AB6A460120BD
:10429000FFF7D6FE3A46694630190BF029FF281978
:1042A00030443A462AA90BF023FF0DF5387DBDE8CE
:1042B000F08100BF19866118F0B5ADF5097D16468D
:1042C00005460C464FF4C872002124A80BF0AAFF43
:1042D0003246214624A8FFF711FF24A96846FFF7BC
:1042E000D1FE6F462E460DF1400C3C460FCC644586
:1042F00030607160B260F360274606F11006F4D1B9
:10430000403512AE22AF34460FCCBC422860696003
:10431000AA60EB60264605F11005F4D10DF5097D84
:10432000F0BD00BF70B50C4605464FF4787601F03D
:1043300041F92946324604F59C600BF0D9FE32461D
:10434000294604F50C60FCF795FD04F50E6020216C
:10435000FFF71CF8002070BD70B5A0B004460E46F3
:1043600010A820211546FFF711F810A908462022B1
:10437000FCF780FD294618A84FF47872FCF77AFD07
:1043800010A968464022FCF7BBFF23462A4610A826
:1043900008A901F029F9214608A84FF48862FCF722
:1043A00069FD304669464022FCF764FD002020B0DC
:1043B00070BD00BF2DE9F0411646A0B080466A46A8
:1043C00030460F4601F052F9D6F8C008D6F8C418A6
:1043D000D6F8C828D6F8CC3808AC0FC4D6F8D00820
:1043E000D6F8D418D6F8D828D6F8DC380FC46946E1
:1043F00010A84022FCF784FF3B4606F59C6218A9F2
:10440000684601F00FF9394604464FF4886218A84F
:10441000FCF730FD234606F50E6110A8202201F0BE
:104420005BF9404610A94022FCF724FD002020B093
:10443000BDE8F0812DE9F04107460C4608463946B3
:1044400000F056FC07F57E6504F59C614FF4787228
:1044500007F540600BF04CFED4F8C068D4F8C408EF
:10446000D4F8C818D4F8CCC8C7F8E06F6860A96061
:10447000C5F80CC0D4F8D068D4F8D408D4F8D8184B
:10448000D4F8DCC8C5F81CC004F50E632E61686161
:10449000A96107F58152D4F8E04858689968DE6848
:1044A000D660146050609160DE691C695869996932
:1044B0009161D6611461506107F5007607F50068D7
:1044C000A6F5007400F0BAF82288638881B2000C67
:1044D000521A1B1AA4F80016A4F802062280638060
:1044E0000434B442EED104F500764645E8D107F530
:1044F000805700F0A3F82B68286243402B600435F6
:10450000BD42F6D10020BDE8F08100BFF0B51546F0
:10451000E1B007466A4628460E4601F0D7F8EC4659
:10452000BCE80F0020AC0FC49CE80F0084E80F002B
:10453000D5F8E00FD5F8E41FD5F8E82FD5F8EC3F13
:1045400028AC0FC4D5F8F00FD5F8F41FD5F8F82F24
:10455000D5F8FC3F0DF1200C0FC4BCE80F0030ACC7
:104560000FC49CE80F0005F5805C84E80F00DCF8C0
:104570000000DCF80410DCF80820DCF80C3038AC63
:104580000FC4DCF81000DCF81410DCF81820DCF89C
:104590001C300FC420AA40A8402120ACFFF78CFE9D
:1045A0000FCCDFF894E00EF5807CACE80F0094E8C7
:1045B0000F0030AC8CE80F000FCC0EF5907CACE80F
:1045C0000F0094E80F008CE80F0072464FF4A071C2
:1045D00072200BF063FD0DF5907CBCE80F0010AC71
:1045E0000FC49CE80F000DF5B07C84E80F00BCE818
:1045F0000F0018AC0FC49CE80F0084E80F0033468E
:1046000010A905F54062684601F036F831460446C7
:104610004FF4886248A8FCF72DFC234605F581512C
:1046200040A8202201F0D6F8384640A94022FCF7E5
:1046300021FC002061B0F0BD401B002008B513F044
:1046400079FB024B1B7800FB03F008BD0000002043
:104650002DE9F041013801F500758C88B1F8028030
:104660000A88CB88B1F808E0B1F80AC08F89CE89F2
:1046700004F00104A40008F0010844EA480402F030
:104680000102224303F0010342EAC3030EF0010ECC
:1046900043EA0E130CF0010C43EA4C1307F0010738
:1046A00043EA871306F00106103143EAC6138D4230
:1046B00000F8013FD1D1BDE8F08100BF10B401F195
:1046C0000803053001F5027133F8082C00F8052CB9
:1046D00033F8082C33F8064CC2F3012242EA840274
:1046E00000F8042C33F8062C33F8044CC2F3831280
:1046F00042EA041200F8032C33F8042C33F8024C7D
:10470000C2F3051242EA841200F8022C33F8022C9C
:10471000083392088B4200F8012C00F10500D3D138
:104720005DF8044B704700BF2DE9F04F451D01F1C6
:104730000804002001F5027134F8089C34F802ECFA
:1047400034F8066C15F805BC15F8018C34F8042C07
:1047500015F804AC15F803CC15F8027CC9F3012355
:1047600043EA86038BEA090988EA9E08C6F38316A2
:1047700046EA021648EA090883EA0A03C2F3051268
:1047800043EA080342EA8E1286EA0C0633437A4073
:1047900013430834DBB28C4240EA030005F10505FF
:1047A000CAD1BDE8F08F00BF10B401F110030D3085
:1047B00001F5047133F8102C00F80D2C33F8102C8F
:1047C00033F80E4CC2F3042242EA441200F80C2CD7
:1047D00033F80E2CD20800F80B2C33F80E2C33F8DB
:1047E0000C4CC2F3C12242EA840200F80A2C33F8CE
:1047F0000C2C33F80A4CC2F3861242EAC41200F8B9
:10480000092C33F80A2C520800F8082C33F80A2C2B
:1048100033F8084CC2F3432242EA041200F8072C92
:1048200033F8082C120900F8062C33F8082C33F85A
:10483000064CC2F3003242EA440200F8052C33F879
:10484000062C33F8044CC2F3C51242EA841200F875
:10485000042C33F8042C920800F8032C33F8042CB1
:1048600033F8024CC2F3822242EAC40200F8022C5E
:1048700033F8022C103352098B4200F8012C00F15E
:104880000D0097D15DF8044B704700BF10B40431A0
:1048900000F1800411F8043C31F8022C03F00F03FE
:1048A00043EA021300F8013BA04201F10401F1D1F7
:1048B0005DF8044B704700BF70B40A1D441E01F53B
:1048C0000176002012F8043C32F8025C14F8011F53
:1048D00003F00F0343EA05134B400432DBB2B2424C
:1048E00040EA0300EED170BC704700BFF0B5421E35
:1048F00000F11F0E12F8013F0B804FEA630C9F106E
:10490000DE101D115C11981196454FEAE313A1F8D2
:1049100002C08F80CE800D814C818881CB8101F1D6
:104920001001E7D1F0BD00BF10B4431D083100F203
:10493000451013F8044C13F8052C42EA042221F820
:10494000082C13F8032C13F8044C920142EA940249
:1049500021F8062C13F8022C13F8034C120142EA3A
:10496000141221F8042C13F8012C13F8024C9200B5
:10497000053342EA9412834221F8022C01F1080126
:10498000D7D15DF8044B704730B400F10D031031FE
:1049900000F2AD1013F80C4C13F80D2C42EA04226F
:1049A00021F8102C13F80A2C13F80B5C13F80C4C9C
:1049B000D20242EAC50242EA541221F80E2C13F840
:1049C000092C13F80A4C920142EA940221F80C2CAB
:1049D00013F8072C13F8085C13F8094C520242EA4A
:1049E000450242EAD41221F80A2C13F8052C13F8D8
:1049F000065C13F8074C120342EA051242EA14124D
:104A000021F8082C13F8042C13F8054CD20142EAC3
:104A1000540221F8062C13F8022C13F8035C13F847
:104A2000044C920242EA850242EA941221F8042CD4
:104A300013F8012C13F8024C52010D3342EAD40250
:104A4000834221F8022C01F11001A3D130BC704740
:104A50000B1D013801F5017110F8012F23F8042C0A
:104A60000278120923F8022C04338B42F4D17047E8
:104A700070B4053001F5027501F60801A5F5007363
:104A8000024633F8084C02F8054C33F8084C33F86A
:104A9000066CC4F3012444EA860402F8044C33F89B
:104AA000064C33F8046CC4F3831444EA061402F889
:104AB000034C33F8044C33F8026CC4F3051444EA95
:104AC000861402F8024C33F8024C0833A408AB42B7
:104AD00002F8014C02F10502D3D103F500758D42B5
:104AE00000F5A070CAD170BC704700BF2DE9F04F2F
:104AF00000F1050C01F50276002001F60801A6F58B
:104B000000746546002734F8082C34F802AC15F818
:104B1000059C15F801BC34F806EC15F8043CC2F30A
:104B200001288BEA9A0B89EA020248EA8E084BEACE
:104B3000020B34F8042C15F8039C88EA0308CEF322
:104B4000831E4EEA021E4BEA0803C2F3051215F853
:104B5000028C42EA8A128EEA090E43EA0E0382EAC6
:104B6000080213430834DBB2B44247EA030705F1F5
:104B70000505C8D104F50076B14240EA07000CF5FE
:104B8000A07CBCD1BDE8F08F70B40D3001F5047588
:104B900001F50161A5F50073024633F8104C02F8E7
:104BA0000D4C33F8104C33F80E6CC4F3042444EA73
:104BB000461402F80C4C33F80E4CE40802F80B4C87
:104BC00033F80E4C33F80C6CC4F3C12444EA860469
:104BD00002F80A4C33F80C4C33F80A6CC4F3861410
:104BE00044EAC61402F8094C33F80A4C640802F887
:104BF000084C33F80A4C33F8086CC4F3432444EAF5
:104C0000061402F8074C33F8084C240902F8064C45
:104C100033F8084C33F8066CC4F3003444EA460415
:104C200002F8054C33F8064C33F8046CC4F3C51491
:104C300044EA861402F8044C33F8044CA40802F841
:104C4000034C33F8044C33F8026CC4F3822444EA76
:104C5000C60402F8024C33F8024C10336409AB422C
:104C600002F8014C02F10D0297D103F500758D4257
:104C700000F5D0708ED170BC704700BF70B40831A1
:104C800000F2451500F20550A5F5A0730A4613F889
:104C9000046C13F8054C44EA062422F8084C13F877
:104CA000034C13F8046CA40144EA960422F8064C61
:104CB00013F8024C13F8036C240144EA161422F88A
:104CC000044C13F8014C13F8026CA400053344EAB9
:104CD00096149D4222F8024C02F10802D7D105F544
:104CE000A075854201F50071CED170BC704700BF40
:104CF000F0B4103100F2AD1500F28D60A5F5D0735F
:104D00000A4613F80C6C13F80D4C44EA062422F8FA
:104D1000104C13F80A4C13F80B7C13F80C6CE402DB
:104D200044EAC70444EA561422F80E4C13F8094C1E
:104D300013F80A6CA40144EA960422F80C4C13F808
:104D4000074C13F8087C13F8096C640244EA470422
:104D500044EAD61422F80A4C13F8054C13F8067CE2
:104D600013F8076C240344EA071444EA161422F8E3
:104D7000084C13F8044C13F8056CE40144EA56049B
:104D800022F8064C13F8024C13F8037C13F8046C59
:104D9000A40244EA870444EA961422F8044C13F867
:104DA000014C13F8026C64010D3344EAD604AB42A3
:104DB00022F8024C02F11002A3D103F5D07585420E
:104DC00001F500719AD1F0BC704700BF2DE9F04F9A
:104DD0000531053002F1080602F5027711F8034C9F
:104DE00011F8023C11F804CC11F8052C36F8088CA7
:104DF00036F806EC36F804AC11F8019CA5014FEA30
:104E0000031B45EA9C0542EA0C224BEA141436F8CF
:104E100002CC9B09A2EB0802A5EB0E05A4EB0A0449
:104E200043EA8903A4B2A3EB0C0392B2ADB29BB2E6
:104E3000C4F30518C5F3831EC2F3012C083648EAF3
:104E400083184CEA85059B084EEA0414B74200F823
:104E5000028C00F8013C00F8052C00F8034C00F827
:104E6000045C01F1050100F10500B7D1BDE8F08F48
:104E700070B40432013900F1800611F8013F32F8B4
:104E8000024C32F8045CC4EB13145B1BA4B203F0B5
:104E90000F0343EA041300F8013BB04202F104029D
:104EA000EBD170BC704700BF10B5C0B00A460446D5
:104EB0004FF480716846FBF731FC69462046FEF7E7
:104EC0009BFB40B010BD00BF10B5E8B00A460446D9
:104ED0004FF4D0716846FBF721FC21466846FFF786
:104EE00053FD68B010BD00BF70B5ADF5407D044600
:104EF0002023164668460A460D464FF44071FBF7DC
:104F00004FFE69462046FEF777FB04F5007040A986
:104F1000FEF772FB04F5806080A9FEF76DFB16B901
:104F20000DF5407D70BD21462846FFF72DFE0DF59D
:104F3000407D70BD70B5ADF53A6D05460DF5B460B8
:104F40000C46FBF76DFB05F5707120220DF5B46082
:104F5000FBF772FB0DF5B460FBF7B4FB0DF5B46124
:104F6000D02268460BF0C4F80DF5B460FBF758FB8F
:104F7000214620220DF5B460FBF75EFB0DF5B46011
:104F8000FBF7A0FB0DF5B46134A8D0220BF0B0F80C
:104F9000002634A9E8A8FFF787FFE8A92046FFF715
:104FA00003FC694668A80EB3FFF78EFF0DF5B462E7
:104FB00068A9E8A800F0FCFA694668A8FFF784FF32
:104FC0000DF5F46268A9E8A800F0F2FA694668A84D
:104FD000FFF77AFF0DF51A6268A9E8A800F0E8FA71
:104FE000022E04F5D07423D00226D2E7694668A8C1
:104FF000FFF76AFF0DF5B46268A9E8A800F0C8FAE7
:10500000694668A8FFF760FF0DF5F46268A9E8A893
:1050100000F0BEFA694668A8FFF756FF0DF51A6260
:1050200068A9E8A804F5D07400F0B2FA0126B0E748
:105030006846FBF7C9FB34A8FBF7C6FB0DF29E746C
:105040000DF69E56A4F5007232F8023F0433DB10D1
:1050500094421380F8D1A4F5FF71284604F500743A
:10506000FFF72CFBA64205F5A075EBD10DF53A6DC7
:1050700070BD00BF2DE9F047ADF59A6D0E460446B0
:10508000B4A898461546FBF7CBFA31462022B4A8BF
:10509000FBF7D2FAB4A8FBF715FBB4A96846D022F7
:1050A0000BF026F804F5707700260DF2CE494FF08C
:1050B000000A694634A8FFF707FF05EB4A20B4AAA7
:1050C00034A9BAF1000F21D000F072FABAF1020F40
:1050D0001FD10DF2CE2232F8023F0433DB104A45D5
:1050E0001380F8D1B4A92046B8F1000F14D0FFF70F
:1050F0001BFB064304F5A074BC42D8D16846FBF7FD
:1051000063FB30460DF59A6DBDE8F087284600F048
:105110003FFA0AF1010ACCE7FFF7D0FAEAE700BF4D
:105120002DE9F043ADF2044D0546DDF820449046EC
:1051300099460F46002669463846FFF7F5FB08EB0F
:10514000462080AA69460EB300F032FA022E20D122
:1051500069464846FFF7CAFB0DF2FE360DF5FF72B1
:10516000ADF1020132F8023F31F8020FA3EB402308
:1051700004339B1196421380F4D180A9284664B170
:10518000FFF79AFB0DF2044DBDE8F083404600F0B6
:10519000FFF9013607F5A077CDE7FFF777FB20464B
:1051A0000DF2044DBDE8F0832DE9F0418846ADF5E0
:1051B000C06D044617460E46002580A93846FFF705
:1051C000E3FB0DF580613046FFF7AEFB6A460DF557
:1051D000806180A815B300F0EBF9022D20D10DF508
:1051E000806108F57070FFF733FC0DF5FF75ADF1C8
:1051F00002020DF2FE3132F8023F31F8020FE433C1
:10520000A3EB80135B1295421380F4D169462046CC
:10521000FFF71EFA0DF5C06DBDE8F08100F0B8F99A
:10522000013507F5D07706F5A076C6E710B5E8B0EA
:105230000A4604464FF4D0716846FBF76FFA2146E0
:105240006846FFF7A1FB68B010BD00BF10B5ADF513
:10525000C06D0B460446202269464FF44070FEF7AD
:10526000EDFF69462046FEF797FA0DF5C06D10BDBB
:105270002DE9F04FADF65C1D06460C460DF5AB6012
:1052800098461746FBF7CCF9214620220DF5AB6076
:10529000FBF7D2F90DF5AB60FBF714FA0DF5AB6136
:1052A00002A8D0220AF024FF07F5C06306F5707B40
:1052B00008F1D00A01930DF5EB693D46002402A9DF
:1052C00036A8FFF7B3FF40F604400AF085F92846F8
:1052D0000DF5AB6236A9002C53D000F069F940F609
:1052E00004400AF079F94A4636A905F5C06000F095
:1052F0005FF9022C54D10DF5AB64D4E90012002003
:1053000001F1040C0546C1F30F416CF30F0002F1EB
:10531000040CC2F30F4204316CF30F05043261F345
:105320001F4062F31F45C4E9000508344C45E4D131
:10533000012241F6FF710DF5AB60FEF79BF80DF50C
:10534000AB623146B6A8FFF741FD21460DF58360FB
:10535000FFF7B4F94FF4A072B6A940461644FBF724
:105360006BF94FF4A0720DF583615046FBF764F9B9
:105370005E45A2D102A8FBF727FA0DF65C1DBDE839
:10538000F08F0DF5AB6236A9384600F001F940F612
:1053900004400AF021F94A4636A9019800F0F8F8CD
:1053A000013405F500758AE72DE9F04FADF6041DCF
:1053B0009246DDF8285906461F46894602F5C06B1D
:1053C0009046002440A94846FFF7AEFA40F6044054
:1053D0000AF002F90DF5A06240A94046002C5AD00F
:1053E00000F0E6F840F604400AF0F6F80DF5E06249
:1053F00040A908F5C06000F0DBF8022C5BD140A9A1
:105400003846FFF773FA0DF2FE4214460DF1FE0125
:105410000DF2FE6C32F8023F31F8020FA3EB40238D
:105420009BB2181D138024F8020F6445F2D1C0A965
:1054300007F12000FFF75AFA23460DF2FE210DF680
:10544000FE0433F8022F31F8020FA342A2EB4022F0
:105450001A80F6D10DF5A060022240F2FF31FEF76E
:1054600009F80DF5A06231466846FFF701FD0DF51C
:10547000E06120A8FFF70AFA694628468022FBF778
:10548000DBF820A905F1D0008022FBF7D5F80DF656
:10549000041DBDE8F08F0DF5A06240A9504600F054
:1054A00077F840F604400AF097F80DF5E06240A95D
:1054B000584600F06DF8013409F5A07908F5007838
:1054C00080E700BF2DE9F0478946ADF5C06D9046F5
:1054D000054602F5C06A0F4616460024694638465E
:1054E000FFF722FA40F604400AF076F880AA6946EF
:1054F0003046BCB300F05CF840F604400AF06CF8AB
:105500000DF58062694606F5C06000F051F8022C86
:1055100037D1694609F57070FFF79AFA0DF2FE343B
:105520000DF5FF72ADF1020132F8023F31F8020FC2
:10553000E433A3EB801394421380F5D1032280A8B7
:1055400040F2FF31FDF796FF80A92846FFF780F86B
:105550000DF5806105F12000FFF77AF80DF5C06DBB
:10556000BDE8F08780AA6946404600F011F840F691
:1055700004400AF031F80DF580626946504600F0AB
:1055800007F8013407F5A07706F50076A6E700BF17
:1055900038B504460D46104600214FF400720AF05B
:1055A00041FE294602462046BDE8384009F0D0BDFC
:1055B00009F0CEBD70B500F570760D460446202189
:1055C0003046FDF7E3FE28462021FDF7DFFE2023CD
:1055D000304632461946FBF7E3FA29462046BDE835
:1055E0007040FFF7A7BC00BFF0B5ADF20C6D1C46D4
:1055F00015460746002202A8FFF776FC002602AAFD
:1056000005F5707120460023FFF734FD3B4602AAE2
:10561000294604F570700096FFF782FD0DF20C6DBF
:10562000F0BD00BF2DE9F041ADF5C16D1D46164638
:105630008046002202A8FFF757FC02AA06F5707107
:1056400028460123FFF716FD01270446434602AA18
:10565000314605F570700097FFF762FD2043404228
:10566000C00F0DF5C16DBDE8F08100BF13460246C5
:105670001846FFF799BD00BF2DE9F041ADF6A85DD2
:1056800002AC0746204616461D468846FAF7C8FF74
:1056900036A8FAF7C5FF41466AA8FFF7D7FD2346AB
:1056A0006AAA06F570712846FFF7E2FD3B466AAA32
:1056B000314605F570700094FFF776FE204600F045
:1056C00061F80DF6A85DBDE8F08100BF1346024603
:1056D0001846FFF7F7BE00BF002A51D0F0B50C1DE9
:1056E000051D5B42A94238BFA042DBB239D3541E2C
:1056F000032C36D94FF0000E63F3070E63F30F2E21
:1057000063F3174E22F0030C63F31F6E84440546C7
:105710000F462E6857F8044B744004EA0E04744098
:1057200045F8044B6545F4D122F00304A24217D09A
:10573000065D0D5D75401D407540661CB242055505
:105740000ED9875D8D5D7D401D4002347D40A242B3
:10575000855505D90A5D015D4A4013404B4003550C
:10576000F0BD0244541E0138013910F8015F11F8F0
:10577000012F6A401A406A40A0420270F5D1F0BD84
:10578000704700BF30B500F1D00491B00546FAF77C
:1057900099FF2046FAF796FF2A4620216846FAF735
:1057A000BDFF202122460DEB0100FAF7B7FF0DF1F6
:1057B0001F040DF1FF33002013F8012F93F8201080
:1057C0009C4282EA010240EA0200F5D14042C00F49
:1057D00011B030BD002A00F0A7802DE9F04102F1A0
:1057E000FF3E5D42BEF1020F03F1FF33EDB25EB248
:1057F00040F29B804FF0000C66F3070C66F30F2C11
:1058000066F3174C00F1400322F0030766F31F6CA8
:105810001F441C6804EA0C0443F8044BBB42F8D153
:1058200022F003039A4219D0C7185C1C97F840C0B5
:10583000A24206EA0C0C87F840C00FD90444023398
:1058400094F840709A4207EA060784F8407005D938
:10585000034493F84040264083F840600B1D041D2C
:10586000A14238BF98424CD3BEF1020F49D94FF044
:10587000000E65F3070E65F30F2E65F3174E22F049
:10588000030C65F31F6E844404460F46266857F8E0
:10589000043BD4F84080734003EA0E0343EA080354
:1058A000734044F8043B6445F0D122F003039A426C
:1058B00025D0C65CCC5CC718744097F840702C406B
:1058C0003C4374405E1C9642C45418D2875D8C5D84
:1058D00000EB060C7C409CF840C02C4044EA0C04D1
:1058E00002337C409A42845509D9CA5CC15CC41811
:1058F0004A4094F84040154025434D40C554BDE80A
:10590000F0810244013A0138013910F8014F11F8D1
:10591000013F90F8406063402B4033436340904226
:105920000370F2D1BDE8F081704700237CE700BF2F
:1059300000B50E68D1F804C0D1F80830D1F80CA039
:10594000D2F80070D2F80480D2F80840D2F80CE007
:1059500017FB06F927FB16FBC9EA0B49C0F80090B4
:1059600027FB1CFB17FB0CF5C8EA070928FB16BB35
:1059700029FB0655C5EA0B4BC0F804B013FB07F52D
:1059800023FB17FB29FB0C55C4EA080929FB065524
:1059900028FB1CBB24FB16BBC5EA0B4BC0F808B0A8
:1059A0001AFB07F52AFB17FB2CFB0955C8EA070968
:1059B00023FB0955CEEA040926FB095523FB18BB36
:1059C0002CFB14BB26FB1EBBC5EA0B4BC0F80CB06E
:1059D00016FB3EF52AFB18FB2CFB0955C8EA070904
:1059E0002AFB0955C4EA080923FB095523FB14BB0C
:1059F0002CFB1EBBC5EA0B4BC0F810B01CFB3EF5E0
:105A00002AFB14FB2AFB0955CEEA040923FB09559E
:105A100023FB1EBBC5EA0B4BC0F814B02AFB09F5EB
:105A20002AFB1EFB13FB3E55C5EA0B4BC0F818B012
:105A30001AFB3EFBC0F2000BC0F81CB0D2F810708D
:105A4000D2F81480D2F81840D2F81CE0D0F81090A8
:105A5000D0F814504FEA194B17FB069927FB16BBD9
:105A6000C9EA0B49C0F810904FEA154B27FB1CBB45
:105A700017FB0C55C8EA070928FB16BB29FB06557E
:105A8000C5EA0B4BD0F81850C0F814B04FEA154BCC
:105A900013FB075523FB17BB29FB0C55C4EA080968
:105AA00029FB065528FB1CBB24FB16BBC5EA0B4B88
:105AB000D0F81C50C0F818B04FEA154B1AFB075528
:105AC0002AFB17BB2CFB0955C8EA070923FB09551C
:105AD000CEEA040926FB095523FB18BB2CFB14BB9B
